{"contracts/CDPView.sol":{"CDPView":{"abi":[{"inputs":[{"internalType":"address","name":"cdpManagerAddr","type":"address"},{"internalType":"address","name":"vatAddr","type":"address"}],"stateMutability":"nonpayable","type":"constructor"},{"inputs":[{"internalType":"address","name":"owner","type":"address"}],"name":"_getProxyOwner","outputs":[{"internalType":"address","name":"userAddr","type":"address"}],"stateMutability":"view","type":"function"},{"inputs":[],"name":"cdpManager","outputs":[{"internalType":"contract CDPManager","name":"","type":"address"}],"stateMutability":"view","type":"function"},{"inputs":[{"internalType":"uint256","name":"_cdpId","type":"uint256"}],"name":"getCdpInfo","outputs":[{"components":[{"internalType":"bytes32","name":"ilk","type":"bytes32"},{"internalType":"address","name":"urn","type":"address"},{"internalType":"address","name":"owner","type":"address"},{"internalType":"address","name":"userAddr","type":"address"},{"internalType":"uint256","name":"collateral","type":"uint256"},{"internalType":"uint256","name":"debt","type":"uint256"},{"internalType":"uint256","name":"adjustedDebt","type":"uint256"}],"internalType":"struct CDPView.Information","name":"","type":"tuple"}],"stateMutability":"view","type":"function"},{"inputs":[],"name":"getCdpManager","outputs":[{"internalType":"address","name":"","type":"address"}],"stateMutability":"view","type":"function"},{"inputs":[],"name":"getVat","outputs":[{"internalType":"address","name":"","type":"address"}],"stateMutability":"view","type":"function"},{"inputs":[],"name":"vat","outputs":[{"internalType":"contract Vat","name":"","type":"address"}],"stateMutability":"view","type":"function"}],"devdoc":{"kind":"dev","methods":{},"version":1},"evm":{"bytecode":{"linkReferences":{},"object":"60806040523480156200001157600080fd5b506040516200183e3803806200183e833981810160405281019062000037919062000231565b6200006b7f15cde22ecc8fa1b45a8e0c7011280febb65d3d44fd06fbe6b3108561471a361160001b620001c460201b60201c565b6200009f7fc4c20eecac9e7b1bf08568b605cb2c6962d44f2b89dc33e1521c241323041d0b60001b620001c460201b60201c565b620000d37f89d72917d0a1b0d0427a4201a998ce8b13b21079372ea44b124bee996dbd29dd60001b620001c460201b60201c565b816000806101000a81548173ffffffffffffffffffffffffffffffffffffffff021916908373ffffffffffffffffffffffffffffffffffffffff160217905550620001477f59d66fceb3ff7729de4e9d054e55b578e705e244ddaf7b71eea90c15b4de206360001b620001c460201b60201c565b6200017b7fd93a45bb3c03e4c7997c7472ea73612801761884ac3d07fb0afd417e1c8b4d7c60001b620001c460201b60201c565b80600160006101000a81548173ffffffffffffffffffffffffffffffffffffffff021916908373ffffffffffffffffffffffffffffffffffffffff160217905550505062000278565b50565b600080fd5b600073ffffffffffffffffffffffffffffffffffffffff82169050919050565b6000620001f982620001cc565b9050919050565b6200020b81620001ec565b81146200021757600080fd5b50565b6000815190506200022b8162000200565b92915050565b600080604083850312156200024b576200024a620001c7565b5b60006200025b858286016200021a565b92505060206200026e858286016200021a565b9150509250929050565b6115b680620002886000396000f3fe608060405234801561001057600080fd5b50600436106100625760003560e01c806336569e77146100675780634042d4ad14610085578063a3d06eb4146100b5578063b3a4e1ae146100d3578063bb038e1514610103578063fe285fd514610121575b600080fd5b61006f61013f565b60405161007c919061105f565b60405180910390f35b61009f600480360381019061009a91906110b5565b610165565b6040516100ac91906111b9565b60405180910390f35b6100bd61099d565b6040516100ca91906111e3565b60405180910390f35b6100ed60048036038101906100e8919061122a565b610a4b565b6040516100fa91906111e3565b60405180910390f35b61010b610ba5565b6040516101189190611278565b60405180910390f35b610129610bc9565b60405161013691906111e3565b60405180910390f35b600160009054906101000a900473ffffffffffffffffffffffffffffffffffffffff1681565b61016d610f5e565b6101997f2c5a0f91afa67e15fe6c21038bc7182380fa537e5f2853f7c1b9b473e09a1efc60001b610c75565b6101c57fbe21c148b92d53396b858aed4b2b35421eefc209030010054f884615249a0bac60001b610c75565b6101f17fdabb8ecaa735bf2dea4d3f7479b3e825c0f191afc319ec01a19dcad2fb564cf560001b610c75565b60008060009054906101000a900473ffffffffffffffffffffffffffffffffffffffff1673ffffffffffffffffffffffffffffffffffffffff16632c2cb9fd846040518263ffffffff1660e01b815260040161024d91906112a2565b602060405180830381865afa15801561026a573d6000803e3d6000fd5b505050506040513d601f19601f8201168201806040525081019061028e91906112e9565b90506102bc7f9d25ae241993b56680953c0ab7e76569ede50662cdbb25d36f37e2541a77858f60001b610c75565b6102e87f71afe7974b119f31442cf4408fb023c9f82b06b0350fc1a85491433ce224483d60001b610c75565b60008060009054906101000a900473ffffffffffffffffffffffffffffffffffffffff1673ffffffffffffffffffffffffffffffffffffffff16638161b120856040518263ffffffff1660e01b815260040161034491906112a2565b602060405180830381865afa158015610361573d6000803e3d6000fd5b505050506040513d601f19601f82011682018060405250810190610385919061132b565b90506103b37f97fdb1440c5fa21046aaabd0f9d62d361c28862895bd85cb5eb28ff5f359f9c660001b610c75565b6103df7f101e3b3fbd8c04a946bb52bfa5924a4b480047816ff578de8bd08675b2c1cf5060001b610c75565b60008060009054906101000a900473ffffffffffffffffffffffffffffffffffffffff1673ffffffffffffffffffffffffffffffffffffffff16632726b073866040518263ffffffff1660e01b815260040161043b91906112a2565b602060405180830381865afa158015610458573d6000803e3d6000fd5b505050506040513d601f19601f8201168201806040525081019061047c919061132b565b90506104aa7f4bf13a8056934c16bd2268d73f482a17fa3f567199a2641a5ef9c323b0d8485460001b610c75565b6104d67f82eb739d0f0ba1eed3e1d104c52518492d1ec69f694715c1437dcc8284b8bc2a60001b610c75565b60006105047fe9d467e963efec8186777a677191e9959110746073638b34323dc3e3cca6f43060001b610c75565b6105307fa5fa586d28cccac7a9d2d4dc988629672ffad0aa414a3d55f2cd094afe79498160001b610c75565b3073ffffffffffffffffffffffffffffffffffffffff1663b3a4e1ae846040518263ffffffff1660e01b815260040161056991906111e3565b602060405180830381865afa9250505080156105a357506040513d601f19601f820116820180604052508101906105a0919061132b565b60015b15610605576105d47f34d035b570a5c800c2c03246c6ca805ca6bdff026c692d8de10205ee67dc9f6a60001b610c75565b6106007f5460e4ef6c8ebdfe82d7335f5abc2d0e2666ac9a68ae043a465fc290c4ec399760001b610c75565b809150505b6106317f78b55aa7cf73e47bf279b0f533447b3d8ed5435e822eeb99654cdee3842af72760001b610c75565b61065d7fa3386e4c3d91c1063bff922ffb284d92d423be9d30d95efa57e25a2abd65afa060001b610c75565b600080600160009054906101000a900473ffffffffffffffffffffffffffffffffffffffff1673ffffffffffffffffffffffffffffffffffffffff16632424be5c87866040518363ffffffff1660e01b81526004016106bd929190611367565b6040805180830381865afa1580156106d9573d6000803e3d6000fd5b505050506040513d601f19601f820116820180604052508101906106fd91906113a5565b9150915061072d7f9e93b8fb319c813c0b42cfd6217e31a3ffa74573c9f9f5148ac4a02b4169d38160001b610c75565b6107597fdacaa000db0af68c3dfad803137bcde8a219ec782974a68aee1a124c7253e0df60001b610c75565b6000600160009054906101000a900473ffffffffffffffffffffffffffffffffffffffff1673ffffffffffffffffffffffffffffffffffffffff1663d9638d36886040518263ffffffff1660e01b81526004016107b691906113e5565b60a060405180830381865afa1580156107d3573d6000803e3d6000fd5b505050506040513d601f19601f820116820180604052508101906107f79190611400565b5050509150506108297f90503e56ced8b3933b70234b51a92be708d4368c0c7f2c0d1c9cb2652c650cf260001b610c75565b6108557fe352e2a8c0011841dac7a3ecc3ec8bbc894071e25c3b99b042640e811776b2e560001b610c75565b60006108618284610c78565b905061088f7fd3f8da464872f2ea5dfa095e304f452980bd9552fc697133544dfabfb6263c2a60001b610c75565b6108bb7ff0fd28ed72ccc66e86fe3b02b78c2fc5791e18ecaa7234cb86a7b4a4d6c5f69560001b610c75565b60006040518060e001604052808a81526020018873ffffffffffffffffffffffffffffffffffffffff1681526020018973ffffffffffffffffffffffffffffffffffffffff1681526020018773ffffffffffffffffffffffffffffffffffffffff1681526020018681526020018581526020018381525090506109607f5379f059d6085cb0c7a06a5e8c284ba3dd63209af0597f3f55ea253ac94cc62560001b610c75565b61098c7fd0326909ecc804a5b5ecb3228997900be79dc5f7e8b784913e4c34bc34dde4cb60001b610c75565b809950505050505050505050919050565b60006109cb7f3868f8fb906c8f8fdd1d541f039d59954561fcbdbe196eefd0e87b6190418a7460001b610c75565b6109f77f678cdcbc51dae2740244c46624c8a4bbfec4b8246e66da607e666aed7354e90b60001b610c75565b610a237f7e4958d039377aeb2e6a0c159302d6c66e3aa3e8a5e299f16ac8b4424974c99b60001b610c75565b600160009054906101000a900473ffffffffffffffffffffffffffffffffffffffff16905090565b6000610a797f07f6b1cca4f3ed775ad7d33f5871e04dd13f777958c2c655566144ed13a90eb160001b610c75565b610aa57f8a459b8cedaefb4d4f69f7ec1f21c585fa284a4d7b0c197434f696910f5c6cc860001b610c75565b610ad17f8a0bef14b018d5945955eabab9f7cb5ded9e2433b42ad277b09c1b0f4f24c14660001b610c75565b6000829050610b027f6a44a02ebfea98298f9467613b5b31203cbf12f878a798a36be4996ed91f7ef660001b610c75565b610b2e7f22fc5131c73519d97aa3d93b159ca0fcc561ffaa4686a8ca92440cd557a20ea960001b610c75565b8073ffffffffffffffffffffffffffffffffffffffff16638da5cb5b6040518163ffffffff1660e01b8152600401602060405180830381865afa158015610b79573d6000803e3d6000fd5b505050506040513d601f19601f82011682018060405250810190610b9d919061132b565b915050919050565b60008054906101000a900473ffffffffffffffffffffffffffffffffffffffff1681565b6000610bf77fe8f3ecf58caed5b52d58a65a9acb3217b92971b6e9cf79044fa987c18522282d60001b610c75565b610c237fc5468abdcfa0b56fc32c297cb56dd74741575c7c5e7292b02b924a8bcaec7a7a60001b610c75565b610c4f7fb61f8f96d4bf4dde089e90f64822028da00b271967f08491155f44c9a50e9ccd60001b610c75565b60008054906101000a900473ffffffffffffffffffffffffffffffffffffffff16905090565b50565b6000610ca67f9c21446de71bef251945828fb8f6b03088606da91cc341a62760e0a44450ebc360001b610d48565b610cd27fb6f158153ca0bcb16cce111431ecca1d2586c7936ebfce2be9a2d5d9c748e51860001b610d48565b610cfe7f5439d0425e8294df0cd05b1dba9929029a87c68564e10cab589d71c05e3d9e5460001b610d48565b6b033b2e3c9fd0803ce8000000610d36610d188585610d4b565b60026b033b2e3c9fd0803ce8000000610d3191906114d9565b610e5f565b610d4091906114d9565b905092915050565b50565b6000610d797f8f39fa3e286119215aff4e37fa38a44418c9a2831dc902899c71ac344ebc7da360001b610d48565b610da57fab2895910f4db8c6f5289c65e4a860f900b10fb93205f13fb1f4128d7d84325d60001b610d48565b610dd17ff294a99ec6404d9e13710cc75a2cc51247195552381edea9eb43fec9ece4ca9960001b610d48565b610dfd7fa27d882b731b803915c7342236549943c94759980aecdb7c5cc8527e42b0216f60001b610d48565b6000821480610e24575082828385610e15919061150a565b925082610e2291906114d9565b145b610e2d57600080fd5b610e597fa510b230fc36335e612947bf953b8b909c3b0f9c7c7093badffa66e782dac08a60001b610d48565b92915050565b6000610e8d7f11a47a2f41ce417dd4f15a8b6a652054c2096d293475c140aaf36b0346421df860001b610d48565b610eb97f43ce94416d0c0871cf8475345254903c40faac46ea49d01c5e4ab33cbe657f0960001b610d48565b610ee57fdd9f18c51a4202a518588b80d447bc8092abadd0deb3c7f011caa0cbb86abaec60001b610d48565b610f117fd815e6f37f13ecc7a0c7eb248d6e373f1b0cb6181726df5ebae7501ca2d5ed8560001b610d48565b828284610f1e919061154c565b9150811015610f2c57600080fd5b610f587fb570a28edb75b72cf53877c4daf76b2e4144962fb6aeff6b673efa945b65062c60001b610d48565b92915050565b6040518060e0016040528060008019168152602001600073ffffffffffffffffffffffffffffffffffffffff168152602001600073ffffffffffffffffffffffffffffffffffffffff168152602001600073ffffffffffffffffffffffffffffffffffffffff1681526020016000815260200160008152602001600081525090565b600073ffffffffffffffffffffffffffffffffffffffff82169050919050565b6000819050919050565b600061102561102061101b84610fe0565b611000565b610fe0565b9050919050565b60006110378261100a565b9050919050565b60006110498261102c565b9050919050565b6110598161103e565b82525050565b60006020820190506110746000830184611050565b92915050565b600080fd5b6000819050919050565b6110928161107f565b811461109d57600080fd5b50565b6000813590506110af81611089565b92915050565b6000602082840312156110cb576110ca61107a565b5b60006110d9848285016110a0565b91505092915050565b6000819050919050565b6110f5816110e2565b82525050565b600061110682610fe0565b9050919050565b611116816110fb565b82525050565b6111258161107f565b82525050565b60e08201600082015161114160008501826110ec565b506020820151611154602085018261110d565b506040820151611167604085018261110d565b50606082015161117a606085018261110d565b50608082015161118d608085018261111c565b5060a08201516111a060a085018261111c565b5060c08201516111b360c085018261111c565b50505050565b600060e0820190506111ce600083018461112b565b92915050565b6111dd816110fb565b82525050565b60006020820190506111f860008301846111d4565b92915050565b611207816110fb565b811461121257600080fd5b50565b600081359050611224816111fe565b92915050565b6000602082840312156112405761123f61107a565b5b600061124e84828501611215565b91505092915050565b60006112628261102c565b9050919050565b61127281611257565b82525050565b600060208201905061128d6000830184611269565b92915050565b61129c8161107f565b82525050565b60006020820190506112b76000830184611293565b92915050565b6112c6816110e2565b81146112d157600080fd5b50565b6000815190506112e3816112bd565b92915050565b6000602082840312156112ff576112fe61107a565b5b600061130d848285016112d4565b91505092915050565b600081519050611325816111fe565b92915050565b6000602082840312156113415761134061107a565b5b600061134f84828501611316565b91505092915050565b611361816110e2565b82525050565b600060408201905061137c6000830185611358565b61138960208301846111d4565b9392505050565b60008151905061139f81611089565b92915050565b600080604083850312156113bc576113bb61107a565b5b60006113ca85828601611390565b92505060206113db85828601611390565b9150509250929050565b60006020820190506113fa6000830184611358565b92915050565b600080600080600060a0868803121561141c5761141b61107a565b5b600061142a88828901611390565b955050602061143b88828901611390565b945050604061144c88828901611390565b935050606061145d88828901611390565b925050608061146e88828901611390565b9150509295509295909350565b7f4e487b7100000000000000000000000000000000000000000000000000000000600052601260045260246000fd5b7f4e487b7100000000000000000000000000000000000000000000000000000000600052601160045260246000fd5b60006114e48261107f565b91506114ef8361107f565b9250826114ff576114fe61147b565b5b828204905092915050565b60006115158261107f565b91506115208361107f565b925082820261152e8161107f565b91508282048414831517611545576115446114aa565b5b5092915050565b60006115578261107f565b91506115628361107f565b925082820190508082111561157a576115796114aa565b5b9291505056fea26469706673582212208950817abbb0357d81e6a65c72a55d71b4717560b957c3dd83f10dfdb1214b3564736f6c63430008130033","opcodes":"PUSH1 0x80 PUSH1 0x40 MSTORE CALLVALUE DUP1 ISZERO PUSH3 0x11 JUMPI PUSH1 0x0 DUP1 REVERT JUMPDEST POP PUSH1 0x40 MLOAD PUSH3 0x183E CODESIZE SUB DUP1 PUSH3 0x183E DUP4 CODECOPY DUP2 DUP2 ADD PUSH1 0x40 MSTORE DUP2 ADD SWAP1 PUSH3 0x37 SWAP2 SWAP1 PUSH3 0x231 JUMP JUMPDEST PUSH3 0x6B PUSH32 0x15CDE22ECC8FA1B45A8E0C7011280FEBB65D3D44FD06FBE6B3108561471A3611 PUSH1 0x0 SHL PUSH3 0x1C4 PUSH1 0x20 SHL PUSH1 0x20 SHR JUMP JUMPDEST PUSH3 0x9F PUSH32 0xC4C20EECAC9E7B1BF08568B605CB2C6962D44F2B89DC33E1521C241323041D0B PUSH1 0x0 SHL PUSH3 0x1C4 PUSH1 0x20 SHL PUSH1 0x20 SHR JUMP JUMPDEST PUSH3 0xD3 PUSH32 0x89D72917D0A1B0D0427A4201A998CE8B13B21079372EA44B124BEE996DBD29DD PUSH1 0x0 SHL PUSH3 0x1C4 PUSH1 0x20 SHL PUSH1 0x20 SHR JUMP JUMPDEST DUP2 PUSH1 0x0 DUP1 PUSH2 0x100 EXP DUP2 SLOAD DUP2 PUSH20 0xFFFFFFFFFFFFFFFFFFFFFFFFFFFFFFFFFFFFFFFF MUL NOT AND SWAP1 DUP4 PUSH20 0xFFFFFFFFFFFFFFFFFFFFFFFFFFFFFFFFFFFFFFFF AND MUL OR SWAP1 SSTORE POP PUSH3 0x147 PUSH32 0x59D66FCEB3FF7729DE4E9D054E55B578E705E244DDAF7B71EEA90C15B4DE2063 PUSH1 0x0 SHL PUSH3 0x1C4 PUSH1 0x20 SHL PUSH1 0x20 SHR JUMP JUMPDEST PUSH3 0x17B PUSH32 0xD93A45BB3C03E4C7997C7472EA73612801761884AC3D07FB0AFD417E1C8B4D7C PUSH1 0x0 SHL PUSH3 0x1C4 PUSH1 0x20 SHL PUSH1 0x20 SHR JUMP JUMPDEST DUP1 PUSH1 0x1 PUSH1 0x0 PUSH2 0x100 EXP DUP2 SLOAD DUP2 PUSH20 0xFFFFFFFFFFFFFFFFFFFFFFFFFFFFFFFFFFFFFFFF MUL NOT AND SWAP1 DUP4 PUSH20 0xFFFFFFFFFFFFFFFFFFFFFFFFFFFFFFFFFFFFFFFF AND MUL OR SWAP1 SSTORE POP POP POP PUSH3 0x278 JUMP JUMPDEST POP JUMP JUMPDEST PUSH1 0x0 DUP1 REVERT JUMPDEST PUSH1 0x0 PUSH20 0xFFFFFFFFFFFFFFFFFFFFFFFFFFFFFFFFFFFFFFFF DUP3 AND SWAP1 POP SWAP2 SWAP1 POP JUMP JUMPDEST PUSH1 0x0 PUSH3 0x1F9 DUP3 PUSH3 0x1CC JUMP JUMPDEST SWAP1 POP SWAP2 SWAP1 POP JUMP JUMPDEST PUSH3 0x20B DUP2 PUSH3 0x1EC JUMP JUMPDEST DUP2 EQ PUSH3 0x217 JUMPI PUSH1 0x0 DUP1 REVERT JUMPDEST POP JUMP JUMPDEST PUSH1 0x0 DUP2 MLOAD SWAP1 POP PUSH3 0x22B DUP2 PUSH3 0x200 JUMP JUMPDEST SWAP3 SWAP2 POP POP JUMP JUMPDEST PUSH1 0x0 DUP1 PUSH1 0x40 DUP4 DUP6 SUB SLT ISZERO PUSH3 0x24B JUMPI PUSH3 0x24A PUSH3 0x1C7 JUMP JUMPDEST JUMPDEST PUSH1 0x0 PUSH3 0x25B DUP6 DUP3 DUP7 ADD PUSH3 0x21A JUMP JUMPDEST SWAP3 POP POP PUSH1 0x20 PUSH3 0x26E DUP6 DUP3 DUP7 ADD PUSH3 0x21A JUMP JUMPDEST SWAP2 POP POP SWAP3 POP SWAP3 SWAP1 POP JUMP JUMPDEST PUSH2 0x15B6 DUP1 PUSH3 0x288 PUSH1 0x0 CODECOPY PUSH1 0x0 RETURN INVALID PUSH1 0x80 PUSH1 0x40 MSTORE CALLVALUE DUP1 ISZERO PUSH2 0x10 JUMPI PUSH1 0x0 DUP1 REVERT JUMPDEST POP PUSH1 0x4 CALLDATASIZE LT PUSH2 0x62 JUMPI PUSH1 0x0 CALLDATALOAD PUSH1 0xE0 SHR DUP1 PUSH4 0x36569E77 EQ PUSH2 0x67 JUMPI DUP1 PUSH4 0x4042D4AD EQ PUSH2 0x85 JUMPI DUP1 PUSH4 0xA3D06EB4 EQ PUSH2 0xB5 JUMPI DUP1 PUSH4 0xB3A4E1AE EQ PUSH2 0xD3 JUMPI DUP1 PUSH4 0xBB038E15 EQ PUSH2 0x103 JUMPI DUP1 PUSH4 0xFE285FD5 EQ PUSH2 0x121 JUMPI JUMPDEST PUSH1 0x0 DUP1 REVERT JUMPDEST PUSH2 0x6F PUSH2 0x13F JUMP JUMPDEST PUSH1 0x40 MLOAD PUSH2 0x7C SWAP2 SWAP1 PUSH2 0x105F JUMP JUMPDEST PUSH1 0x40 MLOAD DUP1 SWAP2 SUB SWAP1 RETURN JUMPDEST PUSH2 0x9F PUSH1 0x4 DUP1 CALLDATASIZE SUB DUP2 ADD SWAP1 PUSH2 0x9A SWAP2 SWAP1 PUSH2 0x10B5 JUMP JUMPDEST PUSH2 0x165 JUMP JUMPDEST PUSH1 0x40 MLOAD PUSH2 0xAC SWAP2 SWAP1 PUSH2 0x11B9 JUMP JUMPDEST PUSH1 0x40 MLOAD DUP1 SWAP2 SUB SWAP1 RETURN JUMPDEST PUSH2 0xBD PUSH2 0x99D JUMP JUMPDEST PUSH1 0x40 MLOAD PUSH2 0xCA SWAP2 SWAP1 PUSH2 0x11E3 JUMP JUMPDEST PUSH1 0x40 MLOAD DUP1 SWAP2 SUB SWAP1 RETURN JUMPDEST PUSH2 0xED PUSH1 0x4 DUP1 CALLDATASIZE SUB DUP2 ADD SWAP1 PUSH2 0xE8 SWAP2 SWAP1 PUSH2 0x122A JUMP JUMPDEST PUSH2 0xA4B JUMP JUMPDEST PUSH1 0x40 MLOAD PUSH2 0xFA SWAP2 SWAP1 PUSH2 0x11E3 JUMP JUMPDEST PUSH1 0x40 MLOAD DUP1 SWAP2 SUB SWAP1 RETURN JUMPDEST PUSH2 0x10B PUSH2 0xBA5 JUMP JUMPDEST PUSH1 0x40 MLOAD PUSH2 0x118 SWAP2 SWAP1 PUSH2 0x1278 JUMP JUMPDEST PUSH1 0x40 MLOAD DUP1 SWAP2 SUB SWAP1 RETURN JUMPDEST PUSH2 0x129 PUSH2 0xBC9 JUMP JUMPDEST PUSH1 0x40 MLOAD PUSH2 0x136 SWAP2 SWAP1 PUSH2 0x11E3 JUMP JUMPDEST PUSH1 0x40 MLOAD DUP1 SWAP2 SUB SWAP1 RETURN JUMPDEST PUSH1 0x1 PUSH1 0x0 SWAP1 SLOAD SWAP1 PUSH2 0x100 EXP SWAP1 DIV PUSH20 0xFFFFFFFFFFFFFFFFFFFFFFFFFFFFFFFFFFFFFFFF AND DUP2 JUMP JUMPDEST PUSH2 0x16D PUSH2 0xF5E JUMP JUMPDEST PUSH2 0x199 PUSH32 0x2C5A0F91AFA67E15FE6C21038BC7182380FA537E5F2853F7C1B9B473E09A1EFC PUSH1 0x0 SHL PUSH2 0xC75 JUMP JUMPDEST PUSH2 0x1C5 PUSH32 0xBE21C148B92D53396B858AED4B2B35421EEFC209030010054F884615249A0BAC PUSH1 0x0 SHL PUSH2 0xC75 JUMP JUMPDEST PUSH2 0x1F1 PUSH32 0xDABB8ECAA735BF2DEA4D3F7479B3E825C0F191AFC319EC01A19DCAD2FB564CF5 PUSH1 0x0 SHL PUSH2 0xC75 JUMP JUMPDEST PUSH1 0x0 DUP1 PUSH1 0x0 SWAP1 SLOAD SWAP1 PUSH2 0x100 EXP SWAP1 DIV PUSH20 0xFFFFFFFFFFFFFFFFFFFFFFFFFFFFFFFFFFFFFFFF AND PUSH20 0xFFFFFFFFFFFFFFFFFFFFFFFFFFFFFFFFFFFFFFFF AND PUSH4 0x2C2CB9FD DUP5 PUSH1 0x40 MLOAD DUP3 PUSH4 0xFFFFFFFF AND PUSH1 0xE0 SHL DUP2 MSTORE PUSH1 0x4 ADD PUSH2 0x24D SWAP2 SWAP1 PUSH2 0x12A2 JUMP JUMPDEST PUSH1 0x20 PUSH1 0x40 MLOAD DUP1 DUP4 SUB DUP2 DUP7 GAS STATICCALL ISZERO DUP1 ISZERO PUSH2 0x26A JUMPI RETURNDATASIZE PUSH1 0x0 DUP1 RETURNDATACOPY RETURNDATASIZE PUSH1 0x0 REVERT JUMPDEST POP POP POP POP PUSH1 0x40 MLOAD RETURNDATASIZE PUSH1 0x1F NOT PUSH1 0x1F DUP3 ADD AND DUP3 ADD DUP1 PUSH1 0x40 MSTORE POP DUP2 ADD SWAP1 PUSH2 0x28E SWAP2 SWAP1 PUSH2 0x12E9 JUMP JUMPDEST SWAP1 POP PUSH2 0x2BC PUSH32 0x9D25AE241993B56680953C0AB7E76569EDE50662CDBB25D36F37E2541A77858F PUSH1 0x0 SHL PUSH2 0xC75 JUMP JUMPDEST PUSH2 0x2E8 PUSH32 0x71AFE7974B119F31442CF4408FB023C9F82B06B0350FC1A85491433CE224483D PUSH1 0x0 SHL PUSH2 0xC75 JUMP JUMPDEST PUSH1 0x0 DUP1 PUSH1 0x0 SWAP1 SLOAD SWAP1 PUSH2 0x100 EXP SWAP1 DIV PUSH20 0xFFFFFFFFFFFFFFFFFFFFFFFFFFFFFFFFFFFFFFFF AND PUSH20 0xFFFFFFFFFFFFFFFFFFFFFFFFFFFFFFFFFFFFFFFF AND PUSH4 0x8161B120 DUP6 PUSH1 0x40 MLOAD DUP3 PUSH4 0xFFFFFFFF AND PUSH1 0xE0 SHL DUP2 MSTORE PUSH1 0x4 ADD PUSH2 0x344 SWAP2 SWAP1 PUSH2 0x12A2 JUMP JUMPDEST PUSH1 0x20 PUSH1 0x40 MLOAD DUP1 DUP4 SUB DUP2 DUP7 GAS STATICCALL ISZERO DUP1 ISZERO PUSH2 0x361 JUMPI RETURNDATASIZE PUSH1 0x0 DUP1 RETURNDATACOPY RETURNDATASIZE PUSH1 0x0 REVERT JUMPDEST POP POP POP POP PUSH1 0x40 MLOAD RETURNDATASIZE PUSH1 0x1F NOT PUSH1 0x1F DUP3 ADD AND DUP3 ADD DUP1 PUSH1 0x40 MSTORE POP DUP2 ADD SWAP1 PUSH2 0x385 SWAP2 SWAP1 PUSH2 0x132B JUMP JUMPDEST SWAP1 POP PUSH2 0x3B3 PUSH32 0x97FDB1440C5FA21046AAABD0F9D62D361C28862895BD85CB5EB28FF5F359F9C6 PUSH1 0x0 SHL PUSH2 0xC75 JUMP JUMPDEST PUSH2 0x3DF PUSH32 0x101E3B3FBD8C04A946BB52BFA5924A4B480047816FF578DE8BD08675B2C1CF50 PUSH1 0x0 SHL PUSH2 0xC75 JUMP JUMPDEST PUSH1 0x0 DUP1 PUSH1 0x0 SWAP1 SLOAD SWAP1 PUSH2 0x100 EXP SWAP1 DIV PUSH20 0xFFFFFFFFFFFFFFFFFFFFFFFFFFFFFFFFFFFFFFFF AND PUSH20 0xFFFFFFFFFFFFFFFFFFFFFFFFFFFFFFFFFFFFFFFF AND PUSH4 0x2726B073 DUP7 PUSH1 0x40 MLOAD DUP3 PUSH4 0xFFFFFFFF AND PUSH1 0xE0 SHL DUP2 MSTORE PUSH1 0x4 ADD PUSH2 0x43B SWAP2 SWAP1 PUSH2 0x12A2 JUMP JUMPDEST PUSH1 0x20 PUSH1 0x40 MLOAD DUP1 DUP4 SUB DUP2 DUP7 GAS STATICCALL ISZERO DUP1 ISZERO PUSH2 0x458 JUMPI RETURNDATASIZE PUSH1 0x0 DUP1 RETURNDATACOPY RETURNDATASIZE PUSH1 0x0 REVERT JUMPDEST POP POP POP POP PUSH1 0x40 MLOAD RETURNDATASIZE PUSH1 0x1F NOT PUSH1 0x1F DUP3 ADD AND DUP3 ADD DUP1 PUSH1 0x40 MSTORE POP DUP2 ADD SWAP1 PUSH2 0x47C SWAP2 SWAP1 PUSH2 0x132B JUMP JUMPDEST SWAP1 POP PUSH2 0x4AA PUSH32 0x4BF13A8056934C16BD2268D73F482A17FA3F567199A2641A5EF9C323B0D84854 PUSH1 0x0 SHL PUSH2 0xC75 JUMP JUMPDEST PUSH2 0x4D6 PUSH32 0x82EB739D0F0BA1EED3E1D104C52518492D1EC69F694715C1437DCC8284B8BC2A PUSH1 0x0 SHL PUSH2 0xC75 JUMP JUMPDEST PUSH1 0x0 PUSH2 0x504 PUSH32 0xE9D467E963EFEC8186777A677191E9959110746073638B34323DC3E3CCA6F430 PUSH1 0x0 SHL PUSH2 0xC75 JUMP JUMPDEST PUSH2 0x530 PUSH32 0xA5FA586D28CCCAC7A9D2D4DC988629672FFAD0AA414A3D55F2CD094AFE794981 PUSH1 0x0 SHL PUSH2 0xC75 JUMP JUMPDEST ADDRESS PUSH20 0xFFFFFFFFFFFFFFFFFFFFFFFFFFFFFFFFFFFFFFFF AND PUSH4 0xB3A4E1AE DUP5 PUSH1 0x40 MLOAD DUP3 PUSH4 0xFFFFFFFF AND PUSH1 0xE0 SHL DUP2 MSTORE PUSH1 0x4 ADD PUSH2 0x569 SWAP2 SWAP1 PUSH2 0x11E3 JUMP JUMPDEST PUSH1 0x20 PUSH1 0x40 MLOAD DUP1 DUP4 SUB DUP2 DUP7 GAS STATICCALL SWAP3 POP POP POP DUP1 ISZERO PUSH2 0x5A3 JUMPI POP PUSH1 0x40 MLOAD RETURNDATASIZE PUSH1 0x1F NOT PUSH1 0x1F DUP3 ADD AND DUP3 ADD DUP1 PUSH1 0x40 MSTORE POP DUP2 ADD SWAP1 PUSH2 0x5A0 SWAP2 SWAP1 PUSH2 0x132B JUMP JUMPDEST PUSH1 0x1 JUMPDEST ISZERO PUSH2 0x605 JUMPI PUSH2 0x5D4 PUSH32 0x34D035B570A5C800C2C03246C6CA805CA6BDFF026C692D8DE10205EE67DC9F6A PUSH1 0x0 SHL PUSH2 0xC75 JUMP JUMPDEST PUSH2 0x600 PUSH32 0x5460E4EF6C8EBDFE82D7335F5ABC2D0E2666AC9A68AE043A465FC290C4EC3997 PUSH1 0x0 SHL PUSH2 0xC75 JUMP JUMPDEST DUP1 SWAP2 POP POP JUMPDEST PUSH2 0x631 PUSH32 0x78B55AA7CF73E47BF279B0F533447B3D8ED5435E822EEB99654CDEE3842AF727 PUSH1 0x0 SHL PUSH2 0xC75 JUMP JUMPDEST PUSH2 0x65D PUSH32 0xA3386E4C3D91C1063BFF922FFB284D92D423BE9D30D95EFA57E25A2ABD65AFA0 PUSH1 0x0 SHL PUSH2 0xC75 JUMP JUMPDEST PUSH1 0x0 DUP1 PUSH1 0x1 PUSH1 0x0 SWAP1 SLOAD SWAP1 PUSH2 0x100 EXP SWAP1 DIV PUSH20 0xFFFFFFFFFFFFFFFFFFFFFFFFFFFFFFFFFFFFFFFF AND PUSH20 0xFFFFFFFFFFFFFFFFFFFFFFFFFFFFFFFFFFFFFFFF AND PUSH4 0x2424BE5C DUP8 DUP7 PUSH1 0x40 MLOAD DUP4 PUSH4 0xFFFFFFFF AND PUSH1 0xE0 SHL DUP2 MSTORE PUSH1 0x4 ADD PUSH2 0x6BD SWAP3 SWAP2 SWAP1 PUSH2 0x1367 JUMP JUMPDEST PUSH1 0x40 DUP1 MLOAD DUP1 DUP4 SUB DUP2 DUP7 GAS STATICCALL ISZERO DUP1 ISZERO PUSH2 0x6D9 JUMPI RETURNDATASIZE PUSH1 0x0 DUP1 RETURNDATACOPY RETURNDATASIZE PUSH1 0x0 REVERT JUMPDEST POP POP POP POP PUSH1 0x40 MLOAD RETURNDATASIZE PUSH1 0x1F NOT PUSH1 0x1F DUP3 ADD AND DUP3 ADD DUP1 PUSH1 0x40 MSTORE POP DUP2 ADD SWAP1 PUSH2 0x6FD SWAP2 SWAP1 PUSH2 0x13A5 JUMP JUMPDEST SWAP2 POP SWAP2 POP PUSH2 0x72D PUSH32 0x9E93B8FB319C813C0B42CFD6217E31A3FFA74573C9F9F5148AC4A02B4169D381 PUSH1 0x0 SHL PUSH2 0xC75 JUMP JUMPDEST PUSH2 0x759 PUSH32 0xDACAA000DB0AF68C3DFAD803137BCDE8A219EC782974A68AEE1A124C7253E0DF PUSH1 0x0 SHL PUSH2 0xC75 JUMP JUMPDEST PUSH1 0x0 PUSH1 0x1 PUSH1 0x0 SWAP1 SLOAD SWAP1 PUSH2 0x100 EXP SWAP1 DIV PUSH20 0xFFFFFFFFFFFFFFFFFFFFFFFFFFFFFFFFFFFFFFFF AND PUSH20 0xFFFFFFFFFFFFFFFFFFFFFFFFFFFFFFFFFFFFFFFF AND PUSH4 0xD9638D36 DUP9 PUSH1 0x40 MLOAD DUP3 PUSH4 0xFFFFFFFF AND PUSH1 0xE0 SHL DUP2 MSTORE PUSH1 0x4 ADD PUSH2 0x7B6 SWAP2 SWAP1 PUSH2 0x13E5 JUMP JUMPDEST PUSH1 0xA0 PUSH1 0x40 MLOAD DUP1 DUP4 SUB DUP2 DUP7 GAS STATICCALL ISZERO DUP1 ISZERO PUSH2 0x7D3 JUMPI RETURNDATASIZE PUSH1 0x0 DUP1 RETURNDATACOPY RETURNDATASIZE PUSH1 0x0 REVERT JUMPDEST POP POP POP POP PUSH1 0x40 MLOAD RETURNDATASIZE PUSH1 0x1F NOT PUSH1 0x1F DUP3 ADD AND DUP3 ADD DUP1 PUSH1 0x40 MSTORE POP DUP2 ADD SWAP1 PUSH2 0x7F7 SWAP2 SWAP1 PUSH2 0x1400 JUMP JUMPDEST POP POP POP SWAP2 POP POP PUSH2 0x829 PUSH32 0x90503E56CED8B3933B70234B51A92BE708D4368C0C7F2C0D1C9CB2652C650CF2 PUSH1 0x0 SHL PUSH2 0xC75 JUMP JUMPDEST PUSH2 0x855 PUSH32 0xE352E2A8C0011841DAC7A3ECC3EC8BBC894071E25C3B99B042640E811776B2E5 PUSH1 0x0 SHL PUSH2 0xC75 JUMP JUMPDEST PUSH1 0x0 PUSH2 0x861 DUP3 DUP5 PUSH2 0xC78 JUMP JUMPDEST SWAP1 POP PUSH2 0x88F PUSH32 0xD3F8DA464872F2EA5DFA095E304F452980BD9552FC697133544DFABFB6263C2A PUSH1 0x0 SHL PUSH2 0xC75 JUMP JUMPDEST PUSH2 0x8BB PUSH32 0xF0FD28ED72CCC66E86FE3B02B78C2FC5791E18ECAA7234CB86A7B4A4D6C5F695 PUSH1 0x0 SHL PUSH2 0xC75 JUMP JUMPDEST PUSH1 0x0 PUSH1 0x40 MLOAD DUP1 PUSH1 0xE0 ADD PUSH1 0x40 MSTORE DUP1 DUP11 DUP2 MSTORE PUSH1 0x20 ADD DUP9 PUSH20 0xFFFFFFFFFFFFFFFFFFFFFFFFFFFFFFFFFFFFFFFF AND DUP2 MSTORE PUSH1 0x20 ADD DUP10 PUSH20 0xFFFFFFFFFFFFFFFFFFFFFFFFFFFFFFFFFFFFFFFF AND DUP2 MSTORE PUSH1 0x20 ADD DUP8 PUSH20 0xFFFFFFFFFFFFFFFFFFFFFFFFFFFFFFFFFFFFFFFF AND DUP2 MSTORE PUSH1 0x20 ADD DUP7 DUP2 MSTORE PUSH1 0x20 ADD DUP6 DUP2 MSTORE PUSH1 0x20 ADD DUP4 DUP2 MSTORE POP SWAP1 POP PUSH2 0x960 PUSH32 0x5379F059D6085CB0C7A06A5E8C284BA3DD63209AF0597F3F55EA253AC94CC625 PUSH1 0x0 SHL PUSH2 0xC75 JUMP JUMPDEST PUSH2 0x98C PUSH32 0xD0326909ECC804A5B5ECB3228997900BE79DC5F7E8B784913E4C34BC34DDE4CB PUSH1 0x0 SHL PUSH2 0xC75 JUMP JUMPDEST DUP1 SWAP10 POP POP POP POP POP POP POP POP POP POP SWAP2 SWAP1 POP JUMP JUMPDEST PUSH1 0x0 PUSH2 0x9CB PUSH32 0x3868F8FB906C8F8FDD1D541F039D59954561FCBDBE196EEFD0E87B6190418A74 PUSH1 0x0 SHL PUSH2 0xC75 JUMP JUMPDEST PUSH2 0x9F7 PUSH32 0x678CDCBC51DAE2740244C46624C8A4BBFEC4B8246E66DA607E666AED7354E90B PUSH1 0x0 SHL PUSH2 0xC75 JUMP JUMPDEST PUSH2 0xA23 PUSH32 0x7E4958D039377AEB2E6A0C159302D6C66E3AA3E8A5E299F16AC8B4424974C99B PUSH1 0x0 SHL PUSH2 0xC75 JUMP JUMPDEST PUSH1 0x1 PUSH1 0x0 SWAP1 SLOAD SWAP1 PUSH2 0x100 EXP SWAP1 DIV PUSH20 0xFFFFFFFFFFFFFFFFFFFFFFFFFFFFFFFFFFFFFFFF AND SWAP1 POP SWAP1 JUMP JUMPDEST PUSH1 0x0 PUSH2 0xA79 PUSH32 0x7F6B1CCA4F3ED775AD7D33F5871E04DD13F777958C2C655566144ED13A90EB1 PUSH1 0x0 SHL PUSH2 0xC75 JUMP JUMPDEST PUSH2 0xAA5 PUSH32 0x8A459B8CEDAEFB4D4F69F7EC1F21C585FA284A4D7B0C197434F696910F5C6CC8 PUSH1 0x0 SHL PUSH2 0xC75 JUMP JUMPDEST PUSH2 0xAD1 PUSH32 0x8A0BEF14B018D5945955EABAB9F7CB5DED9E2433B42AD277B09C1B0F4F24C146 PUSH1 0x0 SHL PUSH2 0xC75 JUMP JUMPDEST PUSH1 0x0 DUP3 SWAP1 POP PUSH2 0xB02 PUSH32 0x6A44A02EBFEA98298F9467613B5B31203CBF12F878A798A36BE4996ED91F7EF6 PUSH1 0x0 SHL PUSH2 0xC75 JUMP JUMPDEST PUSH2 0xB2E PUSH32 0x22FC5131C73519D97AA3D93B159CA0FCC561FFAA4686A8CA92440CD557A20EA9 PUSH1 0x0 SHL PUSH2 0xC75 JUMP JUMPDEST DUP1 PUSH20 0xFFFFFFFFFFFFFFFFFFFFFFFFFFFFFFFFFFFFFFFF AND PUSH4 0x8DA5CB5B PUSH1 0x40 MLOAD DUP2 PUSH4 0xFFFFFFFF AND PUSH1 0xE0 SHL DUP2 MSTORE PUSH1 0x4 ADD PUSH1 0x20 PUSH1 0x40 MLOAD DUP1 DUP4 SUB DUP2 DUP7 GAS STATICCALL ISZERO DUP1 ISZERO PUSH2 0xB79 JUMPI RETURNDATASIZE PUSH1 0x0 DUP1 RETURNDATACOPY RETURNDATASIZE PUSH1 0x0 REVERT JUMPDEST POP POP POP POP PUSH1 0x40 MLOAD RETURNDATASIZE PUSH1 0x1F NOT PUSH1 0x1F DUP3 ADD AND DUP3 ADD DUP1 PUSH1 0x40 MSTORE POP DUP2 ADD SWAP1 PUSH2 0xB9D SWAP2 SWAP1 PUSH2 0x132B JUMP JUMPDEST SWAP2 POP POP SWAP2 SWAP1 POP JUMP JUMPDEST PUSH1 0x0 DUP1 SLOAD SWAP1 PUSH2 0x100 EXP SWAP1 DIV PUSH20 0xFFFFFFFFFFFFFFFFFFFFFFFFFFFFFFFFFFFFFFFF AND DUP2 JUMP JUMPDEST PUSH1 0x0 PUSH2 0xBF7 PUSH32 0xE8F3ECF58CAED5B52D58A65A9ACB3217B92971B6E9CF79044FA987C18522282D PUSH1 0x0 SHL PUSH2 0xC75 JUMP JUMPDEST PUSH2 0xC23 PUSH32 0xC5468ABDCFA0B56FC32C297CB56DD74741575C7C5E7292B02B924A8BCAEC7A7A PUSH1 0x0 SHL PUSH2 0xC75 JUMP JUMPDEST PUSH2 0xC4F PUSH32 0xB61F8F96D4BF4DDE089E90F64822028DA00B271967F08491155F44C9A50E9CCD PUSH1 0x0 SHL PUSH2 0xC75 JUMP JUMPDEST PUSH1 0x0 DUP1 SLOAD SWAP1 PUSH2 0x100 EXP SWAP1 DIV PUSH20 0xFFFFFFFFFFFFFFFFFFFFFFFFFFFFFFFFFFFFFFFF AND SWAP1 POP SWAP1 JUMP JUMPDEST POP JUMP JUMPDEST PUSH1 0x0 PUSH2 0xCA6 PUSH32 0x9C21446DE71BEF251945828FB8F6B03088606DA91CC341A62760E0A44450EBC3 PUSH1 0x0 SHL PUSH2 0xD48 JUMP JUMPDEST PUSH2 0xCD2 PUSH32 0xB6F158153CA0BCB16CCE111431ECCA1D2586C7936EBFCE2BE9A2D5D9C748E518 PUSH1 0x0 SHL PUSH2 0xD48 JUMP JUMPDEST PUSH2 0xCFE PUSH32 0x5439D0425E8294DF0CD05B1DBA9929029A87C68564E10CAB589D71C05E3D9E54 PUSH1 0x0 SHL PUSH2 0xD48 JUMP JUMPDEST PUSH12 0x33B2E3C9FD0803CE8000000 PUSH2 0xD36 PUSH2 0xD18 DUP6 DUP6 PUSH2 0xD4B JUMP JUMPDEST PUSH1 0x2 PUSH12 0x33B2E3C9FD0803CE8000000 PUSH2 0xD31 SWAP2 SWAP1 PUSH2 0x14D9 JUMP JUMPDEST PUSH2 0xE5F JUMP JUMPDEST PUSH2 0xD40 SWAP2 SWAP1 PUSH2 0x14D9 JUMP JUMPDEST SWAP1 POP SWAP3 SWAP2 POP POP JUMP JUMPDEST POP JUMP JUMPDEST PUSH1 0x0 PUSH2 0xD79 PUSH32 0x8F39FA3E286119215AFF4E37FA38A44418C9A2831DC902899C71AC344EBC7DA3 PUSH1 0x0 SHL PUSH2 0xD48 JUMP JUMPDEST PUSH2 0xDA5 PUSH32 0xAB2895910F4DB8C6F5289C65E4A860F900B10FB93205F13FB1F4128D7D84325D PUSH1 0x0 SHL PUSH2 0xD48 JUMP JUMPDEST PUSH2 0xDD1 PUSH32 0xF294A99EC6404D9E13710CC75A2CC51247195552381EDEA9EB43FEC9ECE4CA99 PUSH1 0x0 SHL PUSH2 0xD48 JUMP JUMPDEST PUSH2 0xDFD PUSH32 0xA27D882B731B803915C7342236549943C94759980AECDB7C5CC8527E42B0216F PUSH1 0x0 SHL PUSH2 0xD48 JUMP JUMPDEST PUSH1 0x0 DUP3 EQ DUP1 PUSH2 0xE24 JUMPI POP DUP3 DUP3 DUP4 DUP6 PUSH2 0xE15 SWAP2 SWAP1 PUSH2 0x150A JUMP JUMPDEST SWAP3 POP DUP3 PUSH2 0xE22 SWAP2 SWAP1 PUSH2 0x14D9 JUMP JUMPDEST EQ JUMPDEST PUSH2 0xE2D JUMPI PUSH1 0x0 DUP1 REVERT JUMPDEST PUSH2 0xE59 PUSH32 0xA510B230FC36335E612947BF953B8B909C3B0F9C7C7093BADFFA66E782DAC08A PUSH1 0x0 SHL PUSH2 0xD48 JUMP JUMPDEST SWAP3 SWAP2 POP POP JUMP JUMPDEST PUSH1 0x0 PUSH2 0xE8D PUSH32 0x11A47A2F41CE417DD4F15A8B6A652054C2096D293475C140AAF36B0346421DF8 PUSH1 0x0 SHL PUSH2 0xD48 JUMP JUMPDEST PUSH2 0xEB9 PUSH32 0x43CE94416D0C0871CF8475345254903C40FAAC46EA49D01C5E4AB33CBE657F09 PUSH1 0x0 SHL PUSH2 0xD48 JUMP JUMPDEST PUSH2 0xEE5 PUSH32 0xDD9F18C51A4202A518588B80D447BC8092ABADD0DEB3C7F011CAA0CBB86ABAEC PUSH1 0x0 SHL PUSH2 0xD48 JUMP JUMPDEST PUSH2 0xF11 PUSH32 0xD815E6F37F13ECC7A0C7EB248D6E373F1B0CB6181726DF5EBAE7501CA2D5ED85 PUSH1 0x0 SHL PUSH2 0xD48 JUMP JUMPDEST DUP3 DUP3 DUP5 PUSH2 0xF1E SWAP2 SWAP1 PUSH2 0x154C JUMP JUMPDEST SWAP2 POP DUP2 LT ISZERO PUSH2 0xF2C JUMPI PUSH1 0x0 DUP1 REVERT JUMPDEST PUSH2 0xF58 PUSH32 0xB570A28EDB75B72CF53877C4DAF76B2E4144962FB6AEFF6B673EFA945B65062C PUSH1 0x0 SHL PUSH2 0xD48 JUMP JUMPDEST SWAP3 SWAP2 POP POP JUMP JUMPDEST PUSH1 0x40 MLOAD DUP1 PUSH1 0xE0 ADD PUSH1 0x40 MSTORE DUP1 PUSH1 0x0 DUP1 NOT AND DUP2 MSTORE PUSH1 0x20 ADD PUSH1 0x0 PUSH20 0xFFFFFFFFFFFFFFFFFFFFFFFFFFFFFFFFFFFFFFFF AND DUP2 MSTORE PUSH1 0x20 ADD PUSH1 0x0 PUSH20 0xFFFFFFFFFFFFFFFFFFFFFFFFFFFFFFFFFFFFFFFF AND DUP2 MSTORE PUSH1 0x20 ADD PUSH1 0x0 PUSH20 0xFFFFFFFFFFFFFFFFFFFFFFFFFFFFFFFFFFFFFFFF AND DUP2 MSTORE PUSH1 0x20 ADD PUSH1 0x0 DUP2 MSTORE PUSH1 0x20 ADD PUSH1 0x0 DUP2 MSTORE PUSH1 0x20 ADD PUSH1 0x0 DUP2 MSTORE POP SWAP1 JUMP JUMPDEST PUSH1 0x0 PUSH20 0xFFFFFFFFFFFFFFFFFFFFFFFFFFFFFFFFFFFFFFFF DUP3 AND SWAP1 POP SWAP2 SWAP1 POP JUMP JUMPDEST PUSH1 0x0 DUP2 SWAP1 POP SWAP2 SWAP1 POP JUMP JUMPDEST PUSH1 0x0 PUSH2 0x1025 PUSH2 0x1020 PUSH2 0x101B DUP5 PUSH2 0xFE0 JUMP JUMPDEST PUSH2 0x1000 JUMP JUMPDEST PUSH2 0xFE0 JUMP JUMPDEST SWAP1 POP SWAP2 SWAP1 POP JUMP JUMPDEST PUSH1 0x0 PUSH2 0x1037 DUP3 PUSH2 0x100A JUMP JUMPDEST SWAP1 POP SWAP2 SWAP1 POP JUMP JUMPDEST PUSH1 0x0 PUSH2 0x1049 DUP3 PUSH2 0x102C JUMP JUMPDEST SWAP1 POP SWAP2 SWAP1 POP JUMP JUMPDEST PUSH2 0x1059 DUP2 PUSH2 0x103E JUMP JUMPDEST DUP3 MSTORE POP POP JUMP JUMPDEST PUSH1 0x0 PUSH1 0x20 DUP3 ADD SWAP1 POP PUSH2 0x1074 PUSH1 0x0 DUP4 ADD DUP5 PUSH2 0x1050 JUMP JUMPDEST SWAP3 SWAP2 POP POP JUMP JUMPDEST PUSH1 0x0 DUP1 REVERT JUMPDEST PUSH1 0x0 DUP2 SWAP1 POP SWAP2 SWAP1 POP JUMP JUMPDEST PUSH2 0x1092 DUP2 PUSH2 0x107F JUMP JUMPDEST DUP2 EQ PUSH2 0x109D JUMPI PUSH1 0x0 DUP1 REVERT JUMPDEST POP JUMP JUMPDEST PUSH1 0x0 DUP2 CALLDATALOAD SWAP1 POP PUSH2 0x10AF DUP2 PUSH2 0x1089 JUMP JUMPDEST SWAP3 SWAP2 POP POP JUMP JUMPDEST PUSH1 0x0 PUSH1 0x20 DUP3 DUP5 SUB SLT ISZERO PUSH2 0x10CB JUMPI PUSH2 0x10CA PUSH2 0x107A JUMP JUMPDEST JUMPDEST PUSH1 0x0 PUSH2 0x10D9 DUP5 DUP3 DUP6 ADD PUSH2 0x10A0 JUMP JUMPDEST SWAP2 POP POP SWAP3 SWAP2 POP POP JUMP JUMPDEST PUSH1 0x0 DUP2 SWAP1 POP SWAP2 SWAP1 POP JUMP JUMPDEST PUSH2 0x10F5 DUP2 PUSH2 0x10E2 JUMP JUMPDEST DUP3 MSTORE POP POP JUMP JUMPDEST PUSH1 0x0 PUSH2 0x1106 DUP3 PUSH2 0xFE0 JUMP JUMPDEST SWAP1 POP SWAP2 SWAP1 POP JUMP JUMPDEST PUSH2 0x1116 DUP2 PUSH2 0x10FB JUMP JUMPDEST DUP3 MSTORE POP POP JUMP JUMPDEST PUSH2 0x1125 DUP2 PUSH2 0x107F JUMP JUMPDEST DUP3 MSTORE POP POP JUMP JUMPDEST PUSH1 0xE0 DUP3 ADD PUSH1 0x0 DUP3 ADD MLOAD PUSH2 0x1141 PUSH1 0x0 DUP6 ADD DUP3 PUSH2 0x10EC JUMP JUMPDEST POP PUSH1 0x20 DUP3 ADD MLOAD PUSH2 0x1154 PUSH1 0x20 DUP6 ADD DUP3 PUSH2 0x110D JUMP JUMPDEST POP PUSH1 0x40 DUP3 ADD MLOAD PUSH2 0x1167 PUSH1 0x40 DUP6 ADD DUP3 PUSH2 0x110D JUMP JUMPDEST POP PUSH1 0x60 DUP3 ADD MLOAD PUSH2 0x117A PUSH1 0x60 DUP6 ADD DUP3 PUSH2 0x110D JUMP JUMPDEST POP PUSH1 0x80 DUP3 ADD MLOAD PUSH2 0x118D PUSH1 0x80 DUP6 ADD DUP3 PUSH2 0x111C JUMP JUMPDEST POP PUSH1 0xA0 DUP3 ADD MLOAD PUSH2 0x11A0 PUSH1 0xA0 DUP6 ADD DUP3 PUSH2 0x111C JUMP JUMPDEST POP PUSH1 0xC0 DUP3 ADD MLOAD PUSH2 0x11B3 PUSH1 0xC0 DUP6 ADD DUP3 PUSH2 0x111C JUMP JUMPDEST POP POP POP POP JUMP JUMPDEST PUSH1 0x0 PUSH1 0xE0 DUP3 ADD SWAP1 POP PUSH2 0x11CE PUSH1 0x0 DUP4 ADD DUP5 PUSH2 0x112B JUMP JUMPDEST SWAP3 SWAP2 POP POP JUMP JUMPDEST PUSH2 0x11DD DUP2 PUSH2 0x10FB JUMP JUMPDEST DUP3 MSTORE POP POP JUMP JUMPDEST PUSH1 0x0 PUSH1 0x20 DUP3 ADD SWAP1 POP PUSH2 0x11F8 PUSH1 0x0 DUP4 ADD DUP5 PUSH2 0x11D4 JUMP JUMPDEST SWAP3 SWAP2 POP POP JUMP JUMPDEST PUSH2 0x1207 DUP2 PUSH2 0x10FB JUMP JUMPDEST DUP2 EQ PUSH2 0x1212 JUMPI PUSH1 0x0 DUP1 REVERT JUMPDEST POP JUMP JUMPDEST PUSH1 0x0 DUP2 CALLDATALOAD SWAP1 POP PUSH2 0x1224 DUP2 PUSH2 0x11FE JUMP JUMPDEST SWAP3 SWAP2 POP POP JUMP JUMPDEST PUSH1 0x0 PUSH1 0x20 DUP3 DUP5 SUB SLT ISZERO PUSH2 0x1240 JUMPI PUSH2 0x123F PUSH2 0x107A JUMP JUMPDEST JUMPDEST PUSH1 0x0 PUSH2 0x124E DUP5 DUP3 DUP6 ADD PUSH2 0x1215 JUMP JUMPDEST SWAP2 POP POP SWAP3 SWAP2 POP POP JUMP JUMPDEST PUSH1 0x0 PUSH2 0x1262 DUP3 PUSH2 0x102C JUMP JUMPDEST SWAP1 POP SWAP2 SWAP1 POP JUMP JUMPDEST PUSH2 0x1272 DUP2 PUSH2 0x1257 JUMP JUMPDEST DUP3 MSTORE POP POP JUMP JUMPDEST PUSH1 0x0 PUSH1 0x20 DUP3 ADD SWAP1 POP PUSH2 0x128D PUSH1 0x0 DUP4 ADD DUP5 PUSH2 0x1269 JUMP JUMPDEST SWAP3 SWAP2 POP POP JUMP JUMPDEST PUSH2 0x129C DUP2 PUSH2 0x107F JUMP JUMPDEST DUP3 MSTORE POP POP JUMP JUMPDEST PUSH1 0x0 PUSH1 0x20 DUP3 ADD SWAP1 POP PUSH2 0x12B7 PUSH1 0x0 DUP4 ADD DUP5 PUSH2 0x1293 JUMP JUMPDEST SWAP3 SWAP2 POP POP JUMP JUMPDEST PUSH2 0x12C6 DUP2 PUSH2 0x10E2 JUMP JUMPDEST DUP2 EQ PUSH2 0x12D1 JUMPI PUSH1 0x0 DUP1 REVERT JUMPDEST POP JUMP JUMPDEST PUSH1 0x0 DUP2 MLOAD SWAP1 POP PUSH2 0x12E3 DUP2 PUSH2 0x12BD JUMP JUMPDEST SWAP3 SWAP2 POP POP JUMP JUMPDEST PUSH1 0x0 PUSH1 0x20 DUP3 DUP5 SUB SLT ISZERO PUSH2 0x12FF JUMPI PUSH2 0x12FE PUSH2 0x107A JUMP JUMPDEST JUMPDEST PUSH1 0x0 PUSH2 0x130D DUP5 DUP3 DUP6 ADD PUSH2 0x12D4 JUMP JUMPDEST SWAP2 POP POP SWAP3 SWAP2 POP POP JUMP JUMPDEST PUSH1 0x0 DUP2 MLOAD SWAP1 POP PUSH2 0x1325 DUP2 PUSH2 0x11FE JUMP JUMPDEST SWAP3 SWAP2 POP POP JUMP JUMPDEST PUSH1 0x0 PUSH1 0x20 DUP3 DUP5 SUB SLT ISZERO PUSH2 0x1341 JUMPI PUSH2 0x1340 PUSH2 0x107A JUMP JUMPDEST JUMPDEST PUSH1 0x0 PUSH2 0x134F DUP5 DUP3 DUP6 ADD PUSH2 0x1316 JUMP JUMPDEST SWAP2 POP POP SWAP3 SWAP2 POP POP JUMP JUMPDEST PUSH2 0x1361 DUP2 PUSH2 0x10E2 JUMP JUMPDEST DUP3 MSTORE POP POP JUMP JUMPDEST PUSH1 0x0 PUSH1 0x40 DUP3 ADD SWAP1 POP PUSH2 0x137C PUSH1 0x0 DUP4 ADD DUP6 PUSH2 0x1358 JUMP JUMPDEST PUSH2 0x1389 PUSH1 0x20 DUP4 ADD DUP5 PUSH2 0x11D4 JUMP JUMPDEST SWAP4 SWAP3 POP POP POP JUMP JUMPDEST PUSH1 0x0 DUP2 MLOAD SWAP1 POP PUSH2 0x139F DUP2 PUSH2 0x1089 JUMP JUMPDEST SWAP3 SWAP2 POP POP JUMP JUMPDEST PUSH1 0x0 DUP1 PUSH1 0x40 DUP4 DUP6 SUB SLT ISZERO PUSH2 0x13BC JUMPI PUSH2 0x13BB PUSH2 0x107A JUMP JUMPDEST JUMPDEST PUSH1 0x0 PUSH2 0x13CA DUP6 DUP3 DUP7 ADD PUSH2 0x1390 JUMP JUMPDEST SWAP3 POP POP PUSH1 0x20 PUSH2 0x13DB DUP6 DUP3 DUP7 ADD PUSH2 0x1390 JUMP JUMPDEST SWAP2 POP POP SWAP3 POP SWAP3 SWAP1 POP JUMP JUMPDEST PUSH1 0x0 PUSH1 0x20 DUP3 ADD SWAP1 POP PUSH2 0x13FA PUSH1 0x0 DUP4 ADD DUP5 PUSH2 0x1358 JUMP JUMPDEST SWAP3 SWAP2 POP POP JUMP JUMPDEST PUSH1 0x0 DUP1 PUSH1 0x0 DUP1 PUSH1 0x0 PUSH1 0xA0 DUP7 DUP9 SUB SLT ISZERO PUSH2 0x141C JUMPI PUSH2 0x141B PUSH2 0x107A JUMP JUMPDEST JUMPDEST PUSH1 0x0 PUSH2 0x142A DUP9 DUP3 DUP10 ADD PUSH2 0x1390 JUMP JUMPDEST SWAP6 POP POP PUSH1 0x20 PUSH2 0x143B DUP9 DUP3 DUP10 ADD PUSH2 0x1390 JUMP JUMPDEST SWAP5 POP POP PUSH1 0x40 PUSH2 0x144C DUP9 DUP3 DUP10 ADD PUSH2 0x1390 JUMP JUMPDEST SWAP4 POP POP PUSH1 0x60 PUSH2 0x145D DUP9 DUP3 DUP10 ADD PUSH2 0x1390 JUMP JUMPDEST SWAP3 POP POP PUSH1 0x80 PUSH2 0x146E DUP9 DUP3 DUP10 ADD PUSH2 0x1390 JUMP JUMPDEST SWAP2 POP POP SWAP3 SWAP6 POP SWAP3 SWAP6 SWAP1 SWAP4 POP JUMP JUMPDEST PUSH32 0x4E487B7100000000000000000000000000000000000000000000000000000000 PUSH1 0x0 MSTORE PUSH1 0x12 PUSH1 0x4 MSTORE PUSH1 0x24 PUSH1 0x0 REVERT JUMPDEST PUSH32 0x4E487B7100000000000000000000000000000000000000000000000000000000 PUSH1 0x0 MSTORE PUSH1 0x11 PUSH1 0x4 MSTORE PUSH1 0x24 PUSH1 0x0 REVERT JUMPDEST PUSH1 0x0 PUSH2 0x14E4 DUP3 PUSH2 0x107F JUMP JUMPDEST SWAP2 POP PUSH2 0x14EF DUP4 PUSH2 0x107F JUMP JUMPDEST SWAP3 POP DUP3 PUSH2 0x14FF JUMPI PUSH2 0x14FE PUSH2 0x147B JUMP JUMPDEST JUMPDEST DUP3 DUP3 DIV SWAP1 POP SWAP3 SWAP2 POP POP JUMP JUMPDEST PUSH1 0x0 PUSH2 0x1515 DUP3 PUSH2 0x107F JUMP JUMPDEST SWAP2 POP PUSH2 0x1520 DUP4 PUSH2 0x107F JUMP JUMPDEST SWAP3 POP DUP3 DUP3 MUL PUSH2 0x152E DUP2 PUSH2 0x107F JUMP JUMPDEST SWAP2 POP DUP3 DUP3 DIV DUP5 EQ DUP4 ISZERO OR PUSH2 0x1545 JUMPI PUSH2 0x1544 PUSH2 0x14AA JUMP JUMPDEST JUMPDEST POP SWAP3 SWAP2 POP POP JUMP JUMPDEST PUSH1 0x0 PUSH2 0x1557 DUP3 PUSH2 0x107F JUMP JUMPDEST SWAP2 POP PUSH2 0x1562 DUP4 PUSH2 0x107F JUMP JUMPDEST SWAP3 POP DUP3 DUP3 ADD SWAP1 POP DUP1 DUP3 GT ISZERO PUSH2 0x157A JUMPI PUSH2 0x1579 PUSH2 0x14AA JUMP JUMPDEST JUMPDEST SWAP3 SWAP2 POP POP JUMP INVALID LOG2 PUSH5 0x6970667358 0x22 SLT KECCAK256 DUP10 POP DUP2 PUSH27 0xBBB0357D81E6A65C72A55D71B4717560B957C3DD83F10DFDB1214B CALLDATALOAD PUSH5 0x736F6C6343 STOP ADDMOD SGT STOP CALLER "},"gasEstimates":{"creation":{"codeDepositCost":"1111600","executionCost":"infinite","totalCost":"infinite"},"external":{"_getProxyOwner(address)":"infinite","cdpManager()":"infinite","getCdpInfo(uint256)":"infinite","getCdpManager()":"infinite","getVat()":"infinite","vat()":"infinite"},"internal":{"c_0x7d7308f9(bytes32)":"11"}},"methodIdentifiers":{"_getProxyOwner(address)":"b3a4e1ae","cdpManager()":"bb038e15","getCdpInfo(uint256)":"4042d4ad","getCdpManager()":"fe285fd5","getVat()":"a3d06eb4","vat()":"36569e77"}},"storageLayout":{"storage":[{"astId":89,"contract":"contracts/CDPView.sol:CDPView","label":"cdpManager","offset":0,"slot":"0","type":"t_contract(CDPManager)30"},{"astId":92,"contract":"contracts/CDPView.sol:CDPView","label":"vat","offset":0,"slot":"1","type":"t_contract(Vat)63"}],"types":{"t_contract(CDPManager)30":{"encoding":"inplace","label":"contract CDPManager","numberOfBytes":"20"},"t_contract(Vat)63":{"encoding":"inplace","label":"contract Vat","numberOfBytes":"20"}}},"userdoc":{"kind":"user","methods":{},"version":1}}}}