{
  "_format": "hh-sol-artifact-1",
  "contractName": "CDPView",
  "sourceName": "contracts/CDPView.sol",
  "abi": [
    {
      "inputs": [
        {
          "internalType": "address",
          "name": "cdpManagerAddr",
          "type": "address"
        },
        {
          "internalType": "address",
          "name": "vatAddr",
          "type": "address"
        }
      ],
      "stateMutability": "nonpayable",
      "type": "constructor"
    },
    {
      "inputs": [
        {
          "internalType": "address",
          "name": "owner",
          "type": "address"
        }
      ],
      "name": "_getProxyOwner",
      "outputs": [
        {
          "internalType": "address",
          "name": "userAddr",
          "type": "address"
        }
      ],
      "stateMutability": "view",
      "type": "function"
    },
    {
      "inputs": [],
      "name": "cdpManager",
      "outputs": [
        {
          "internalType": "contract CDPManager",
          "name": "",
          "type": "address"
        }
      ],
      "stateMutability": "view",
      "type": "function"
    },
    {
      "inputs": [
        {
          "internalType": "uint256",
          "name": "_cdpId",
          "type": "uint256"
        }
      ],
      "name": "getCdpInfo",
      "outputs": [
        {
          "components": [
            {
              "internalType": "bytes32",
              "name": "ilk",
              "type": "bytes32"
            },
            {
              "internalType": "address",
              "name": "urn",
              "type": "address"
            },
            {
              "internalType": "address",
              "name": "owner",
              "type": "address"
            },
            {
              "internalType": "address",
              "name": "userAddr",
              "type": "address"
            },
            {
              "internalType": "uint256",
              "name": "collateral",
              "type": "uint256"
            },
            {
              "internalType": "uint256",
              "name": "debt",
              "type": "uint256"
            },
            {
              "internalType": "uint256",
              "name": "adjustedDebt",
              "type": "uint256"
            }
          ],
          "internalType": "struct CDPView.Information",
          "name": "",
          "type": "tuple"
        }
      ],
      "stateMutability": "view",
      "type": "function"
    },
    {
      "inputs": [],
      "name": "getCdpManager",
      "outputs": [
        {
          "internalType": "address",
          "name": "",
          "type": "address"
        }
      ],
      "stateMutability": "view",
      "type": "function"
    },
    {
      "inputs": [],
      "name": "vat",
      "outputs": [
        {
          "internalType": "contract Vat",
          "name": "",
          "type": "address"
        }
      ],
      "stateMutability": "view",
      "type": "function"
    }
  ],
  "bytecode": "0x608060405234801561001057600080fd5b50604051610d7c380380610d7c8339818101604052810190610032919061011d565b816000806101000a81548173ffffffffffffffffffffffffffffffffffffffff021916908373ffffffffffffffffffffffffffffffffffffffff16021790555080600160006101000a81548173ffffffffffffffffffffffffffffffffffffffff021916908373ffffffffffffffffffffffffffffffffffffffff160217905550505061015d565b600080fd5b600073ffffffffffffffffffffffffffffffffffffffff82169050919050565b60006100ea826100bf565b9050919050565b6100fa816100df565b811461010557600080fd5b50565b600081519050610117816100f1565b92915050565b60008060408385031215610134576101336100ba565b5b600061014285828601610108565b925050602061015385828601610108565b9150509250929050565b610c108061016c6000396000f3fe608060405234801561001057600080fd5b50600436106100575760003560e01c806336569e771461005c5780634042d4ad1461007a578063b3a4e1ae146100aa578063bb038e15146100da578063fe285fd5146100f8575b600080fd5b610064610116565b604051610071919061074d565b60405180910390f35b610094600480360381019061008f91906107a3565b61013c565b6040516100a191906108a7565b60405180910390f35b6100c460048036038101906100bf91906108ee565b610582565b6040516100d1919061092a565b60405180910390f35b6100e26105ff565b6040516100ef9190610966565b60405180910390f35b610100610623565b60405161010d919061092a565b60405180910390f35b600160009054906101000a900473ffffffffffffffffffffffffffffffffffffffff1681565b61014461064c565b60008060009054906101000a900473ffffffffffffffffffffffffffffffffffffffff1673ffffffffffffffffffffffffffffffffffffffff16632c2cb9fd846040518263ffffffff1660e01b81526004016101a09190610990565b602060405180830381865afa1580156101bd573d6000803e3d6000fd5b505050506040513d601f19601f820116820180604052508101906101e191906109d7565b905060008060009054906101000a900473ffffffffffffffffffffffffffffffffffffffff1673ffffffffffffffffffffffffffffffffffffffff16638161b120856040518263ffffffff1660e01b815260040161023f9190610990565b602060405180830381865afa15801561025c573d6000803e3d6000fd5b505050506040513d601f19601f820116820180604052508101906102809190610a19565b905060008060009054906101000a900473ffffffffffffffffffffffffffffffffffffffff1673ffffffffffffffffffffffffffffffffffffffff16632726b073866040518263ffffffff1660e01b81526004016102de9190610990565b602060405180830381865afa1580156102fb573d6000803e3d6000fd5b505050506040513d601f19601f8201168201806040525081019061031f9190610a19565b905060003073ffffffffffffffffffffffffffffffffffffffff1663b3a4e1ae846040518263ffffffff1660e01b815260040161035c919061092a565b602060405180830381865afa92505050801561039657506040513d601f19601f820116820180604052508101906103939190610a19565b60015b156103a057809150505b600080600160009054906101000a900473ffffffffffffffffffffffffffffffffffffffff1673ffffffffffffffffffffffffffffffffffffffff16632424be5c87866040518363ffffffff1660e01b8152600401610400929190610a55565b6040805180830381865afa15801561041c573d6000803e3d6000fd5b505050506040513d601f19601f820116820180604052508101906104409190610a93565b915091506000600160009054906101000a900473ffffffffffffffffffffffffffffffffffffffff1673ffffffffffffffffffffffffffffffffffffffff1663d9638d36886040518263ffffffff1660e01b81526004016104a19190610ad3565b60a060405180830381865afa1580156104be573d6000803e3d6000fd5b505050506040513d601f19601f820116820180604052508101906104e29190610aee565b505050915050600082826104f69190610b98565b905060006040518060e001604052808a81526020018873ffffffffffffffffffffffffffffffffffffffff1681526020018973ffffffffffffffffffffffffffffffffffffffff1681526020018773ffffffffffffffffffffffffffffffffffffffff168152602001868152602001858152602001838152509050809950505050505050505050919050565b6000808290508073ffffffffffffffffffffffffffffffffffffffff16638da5cb5b6040518163ffffffff1660e01b8152600401602060405180830381865afa1580156105d3573d6000803e3d6000fd5b505050506040513d601f19601f820116820180604052508101906105f79190610a19565b915050919050565b60008054906101000a900473ffffffffffffffffffffffffffffffffffffffff1681565b60008060009054906101000a900473ffffffffffffffffffffffffffffffffffffffff16905090565b6040518060e0016040528060008019168152602001600073ffffffffffffffffffffffffffffffffffffffff168152602001600073ffffffffffffffffffffffffffffffffffffffff168152602001600073ffffffffffffffffffffffffffffffffffffffff1681526020016000815260200160008152602001600081525090565b600073ffffffffffffffffffffffffffffffffffffffff82169050919050565b6000819050919050565b600061071361070e610709846106ce565b6106ee565b6106ce565b9050919050565b6000610725826106f8565b9050919050565b60006107378261071a565b9050919050565b6107478161072c565b82525050565b6000602082019050610762600083018461073e565b92915050565b600080fd5b6000819050919050565b6107808161076d565b811461078b57600080fd5b50565b60008135905061079d81610777565b92915050565b6000602082840312156107b9576107b8610768565b5b60006107c78482850161078e565b91505092915050565b6000819050919050565b6107e3816107d0565b82525050565b60006107f4826106ce565b9050919050565b610804816107e9565b82525050565b6108138161076d565b82525050565b60e08201600082015161082f60008501826107da565b50602082015161084260208501826107fb565b50604082015161085560408501826107fb565b50606082015161086860608501826107fb565b50608082015161087b608085018261080a565b5060a082015161088e60a085018261080a565b5060c08201516108a160c085018261080a565b50505050565b600060e0820190506108bc6000830184610819565b92915050565b6108cb816107e9565b81146108d657600080fd5b50565b6000813590506108e8816108c2565b92915050565b60006020828403121561090457610903610768565b5b6000610912848285016108d9565b91505092915050565b610924816107e9565b82525050565b600060208201905061093f600083018461091b565b92915050565b60006109508261071a565b9050919050565b61096081610945565b82525050565b600060208201905061097b6000830184610957565b92915050565b61098a8161076d565b82525050565b60006020820190506109a56000830184610981565b92915050565b6109b4816107d0565b81146109bf57600080fd5b50565b6000815190506109d1816109ab565b92915050565b6000602082840312156109ed576109ec610768565b5b60006109fb848285016109c2565b91505092915050565b600081519050610a13816108c2565b92915050565b600060208284031215610a2f57610a2e610768565b5b6000610a3d84828501610a04565b91505092915050565b610a4f816107d0565b82525050565b6000604082019050610a6a6000830185610a46565b610a77602083018461091b565b9392505050565b600081519050610a8d81610777565b92915050565b60008060408385031215610aaa57610aa9610768565b5b6000610ab885828601610a7e565b9250506020610ac985828601610a7e565b9150509250929050565b6000602082019050610ae86000830184610a46565b92915050565b600080600080600060a08688031215610b0a57610b09610768565b5b6000610b1888828901610a7e565b9550506020610b2988828901610a7e565b9450506040610b3a88828901610a7e565b9350506060610b4b88828901610a7e565b9250506080610b5c88828901610a7e565b9150509295509295909350565b7f4e487b7100000000000000000000000000000000000000000000000000000000600052601160045260246000fd5b6000610ba38261076d565b9150610bae8361076d565b9250828202610bbc8161076d565b91508282048414831517610bd357610bd2610b69565b5b509291505056fea26469706673582212206c5a4b943379eda951fc2020289629457ac4a7cd904fd3dcfbfe6a449402f4cd64736f6c63430008130033",
  "linkReferences": {},
  "deployedLinkReferences": {}
}