{
  "_format": "hh-sol-artifact-1",
  "contractName": "CDPView",
  "sourceName": "contracts/CDPView.sol",
  "abi": [
    {
      "inputs": [
        {
          "internalType": "address",
          "name": "cdpManagerAddr",
          "type": "address"
        },
        {
          "internalType": "address",
          "name": "vatAddr",
          "type": "address"
        }
      ],
      "stateMutability": "nonpayable",
      "type": "constructor"
    },
    {
      "inputs": [
        {
          "internalType": "address",
          "name": "owner",
          "type": "address"
        }
      ],
      "name": "_getProxyOwner",
      "outputs": [
        {
          "internalType": "address",
          "name": "userAddr",
          "type": "address"
        }
      ],
      "stateMutability": "view",
      "type": "function"
    },
    {
      "inputs": [],
      "name": "cdpManager",
      "outputs": [
        {
          "internalType": "contract CDPManager",
          "name": "",
          "type": "address"
        }
      ],
      "stateMutability": "view",
      "type": "function"
    },
    {
      "inputs": [
        {
          "internalType": "uint256",
          "name": "_cdpId",
          "type": "uint256"
        }
      ],
      "name": "getCdpInfo",
      "outputs": [
        {
          "components": [
            {
              "internalType": "bytes32",
              "name": "ilk",
              "type": "bytes32"
            },
            {
              "internalType": "address",
              "name": "urn",
              "type": "address"
            },
            {
              "internalType": "address",
              "name": "owner",
              "type": "address"
            },
            {
              "internalType": "address",
              "name": "userAddr",
              "type": "address"
            },
            {
              "internalType": "uint256",
              "name": "collateral",
              "type": "uint256"
            },
            {
              "internalType": "uint256",
              "name": "debt",
              "type": "uint256"
            },
            {
              "internalType": "uint256",
              "name": "adjustedDebt",
              "type": "uint256"
            }
          ],
          "internalType": "struct CDPView.Information",
          "name": "",
          "type": "tuple"
        }
      ],
      "stateMutability": "view",
      "type": "function"
    },
    {
      "inputs": [],
      "name": "getCdpManager",
      "outputs": [
        {
          "internalType": "address",
          "name": "",
          "type": "address"
        }
      ],
      "stateMutability": "view",
      "type": "function"
    },
    {
      "inputs": [],
      "name": "getVat",
      "outputs": [
        {
          "internalType": "address",
          "name": "",
          "type": "address"
        }
      ],
      "stateMutability": "view",
      "type": "function"
    },
    {
      "inputs": [],
      "name": "vat",
      "outputs": [
        {
          "internalType": "contract Vat",
          "name": "",
          "type": "address"
        }
      ],
      "stateMutability": "view",
      "type": "function"
    }
  ],
  "bytecode": "0x608060405234801561001057600080fd5b50604051610dcf380380610dcf8339818101604052810190610032919061011d565b816000806101000a81548173ffffffffffffffffffffffffffffffffffffffff021916908373ffffffffffffffffffffffffffffffffffffffff16021790555080600160006101000a81548173ffffffffffffffffffffffffffffffffffffffff021916908373ffffffffffffffffffffffffffffffffffffffff160217905550505061015d565b600080fd5b600073ffffffffffffffffffffffffffffffffffffffff82169050919050565b60006100ea826100bf565b9050919050565b6100fa816100df565b811461010557600080fd5b50565b600081519050610117816100f1565b92915050565b60008060408385031215610134576101336100ba565b5b600061014285828601610108565b925050602061015385828601610108565b9150509250929050565b610c638061016c6000396000f3fe608060405234801561001057600080fd5b50600436106100625760003560e01c806336569e77146100675780634042d4ad14610085578063a3d06eb4146100b5578063b3a4e1ae146100d3578063bb038e1514610103578063fe285fd514610121575b600080fd5b61006f61013f565b60405161007c91906107a0565b60405180910390f35b61009f600480360381019061009a91906107f6565b610165565b6040516100ac91906108fa565b60405180910390f35b6100bd6105ab565b6040516100ca9190610924565b60405180910390f35b6100ed60048036038101906100e8919061096b565b6105d5565b6040516100fa9190610924565b60405180910390f35b61010b610652565b60405161011891906109b9565b60405180910390f35b610129610676565b6040516101369190610924565b60405180910390f35b600160009054906101000a900473ffffffffffffffffffffffffffffffffffffffff1681565b61016d61069f565b60008060009054906101000a900473ffffffffffffffffffffffffffffffffffffffff1673ffffffffffffffffffffffffffffffffffffffff16632c2cb9fd846040518263ffffffff1660e01b81526004016101c991906109e3565b602060405180830381865afa1580156101e6573d6000803e3d6000fd5b505050506040513d601f19601f8201168201806040525081019061020a9190610a2a565b905060008060009054906101000a900473ffffffffffffffffffffffffffffffffffffffff1673ffffffffffffffffffffffffffffffffffffffff16638161b120856040518263ffffffff1660e01b815260040161026891906109e3565b602060405180830381865afa158015610285573d6000803e3d6000fd5b505050506040513d601f19601f820116820180604052508101906102a99190610a6c565b905060008060009054906101000a900473ffffffffffffffffffffffffffffffffffffffff1673ffffffffffffffffffffffffffffffffffffffff16632726b073866040518263ffffffff1660e01b815260040161030791906109e3565b602060405180830381865afa158015610324573d6000803e3d6000fd5b505050506040513d601f19601f820116820180604052508101906103489190610a6c565b905060003073ffffffffffffffffffffffffffffffffffffffff1663b3a4e1ae846040518263ffffffff1660e01b81526004016103859190610924565b602060405180830381865afa9250505080156103bf57506040513d601f19601f820116820180604052508101906103bc9190610a6c565b60015b156103c957809150505b600080600160009054906101000a900473ffffffffffffffffffffffffffffffffffffffff1673ffffffffffffffffffffffffffffffffffffffff16632424be5c87866040518363ffffffff1660e01b8152600401610429929190610aa8565b6040805180830381865afa158015610445573d6000803e3d6000fd5b505050506040513d601f19601f820116820180604052508101906104699190610ae6565b915091506000600160009054906101000a900473ffffffffffffffffffffffffffffffffffffffff1673ffffffffffffffffffffffffffffffffffffffff1663d9638d36886040518263ffffffff1660e01b81526004016104ca9190610b26565b60a060405180830381865afa1580156104e7573d6000803e3d6000fd5b505050506040513d601f19601f8201168201806040525081019061050b9190610b41565b5050509150506000828261051f9190610beb565b905060006040518060e001604052808a81526020018873ffffffffffffffffffffffffffffffffffffffff1681526020018973ffffffffffffffffffffffffffffffffffffffff1681526020018773ffffffffffffffffffffffffffffffffffffffff168152602001868152602001858152602001838152509050809950505050505050505050919050565b6000600160009054906101000a900473ffffffffffffffffffffffffffffffffffffffff16905090565b6000808290508073ffffffffffffffffffffffffffffffffffffffff16638da5cb5b6040518163ffffffff1660e01b8152600401602060405180830381865afa158015610626573d6000803e3d6000fd5b505050506040513d601f19601f8201168201806040525081019061064a9190610a6c565b915050919050565b60008054906101000a900473ffffffffffffffffffffffffffffffffffffffff1681565b60008060009054906101000a900473ffffffffffffffffffffffffffffffffffffffff16905090565b6040518060e0016040528060008019168152602001600073ffffffffffffffffffffffffffffffffffffffff168152602001600073ffffffffffffffffffffffffffffffffffffffff168152602001600073ffffffffffffffffffffffffffffffffffffffff1681526020016000815260200160008152602001600081525090565b600073ffffffffffffffffffffffffffffffffffffffff82169050919050565b6000819050919050565b600061076661076161075c84610721565b610741565b610721565b9050919050565b60006107788261074b565b9050919050565b600061078a8261076d565b9050919050565b61079a8161077f565b82525050565b60006020820190506107b56000830184610791565b92915050565b600080fd5b6000819050919050565b6107d3816107c0565b81146107de57600080fd5b50565b6000813590506107f0816107ca565b92915050565b60006020828403121561080c5761080b6107bb565b5b600061081a848285016107e1565b91505092915050565b6000819050919050565b61083681610823565b82525050565b600061084782610721565b9050919050565b6108578161083c565b82525050565b610866816107c0565b82525050565b60e082016000820151610882600085018261082d565b506020820151610895602085018261084e565b5060408201516108a8604085018261084e565b5060608201516108bb606085018261084e565b5060808201516108ce608085018261085d565b5060a08201516108e160a085018261085d565b5060c08201516108f460c085018261085d565b50505050565b600060e08201905061090f600083018461086c565b92915050565b61091e8161083c565b82525050565b60006020820190506109396000830184610915565b92915050565b6109488161083c565b811461095357600080fd5b50565b6000813590506109658161093f565b92915050565b600060208284031215610981576109806107bb565b5b600061098f84828501610956565b91505092915050565b60006109a38261076d565b9050919050565b6109b381610998565b82525050565b60006020820190506109ce60008301846109aa565b92915050565b6109dd816107c0565b82525050565b60006020820190506109f860008301846109d4565b92915050565b610a0781610823565b8114610a1257600080fd5b50565b600081519050610a24816109fe565b92915050565b600060208284031215610a4057610a3f6107bb565b5b6000610a4e84828501610a15565b91505092915050565b600081519050610a668161093f565b92915050565b600060208284031215610a8257610a816107bb565b5b6000610a9084828501610a57565b91505092915050565b610aa281610823565b82525050565b6000604082019050610abd6000830185610a99565b610aca6020830184610915565b9392505050565b600081519050610ae0816107ca565b92915050565b60008060408385031215610afd57610afc6107bb565b5b6000610b0b85828601610ad1565b9250506020610b1c85828601610ad1565b9150509250929050565b6000602082019050610b3b6000830184610a99565b92915050565b600080600080600060a08688031215610b5d57610b5c6107bb565b5b6000610b6b88828901610ad1565b9550506020610b7c88828901610ad1565b9450506040610b8d88828901610ad1565b9350506060610b9e88828901610ad1565b9250506080610baf88828901610ad1565b9150509295509295909350565b7f4e487b7100000000000000000000000000000000000000000000000000000000600052601160045260246000fd5b6000610bf6826107c0565b9150610c01836107c0565b9250828202610c0f816107c0565b91508282048414831517610c2657610c25610bbc565b5b509291505056fea264697066735822122029ff0610a7747490e71ecca069dd9072e135fb7128e909084f74947e8e1571a464736f6c63430008130033",
  "linkReferences": {},
  "deployedLinkReferences": {}
}