{
  "_format": "hh-sol-artifact-1",
  "contractName": "CDPView",
  "sourceName": "contracts/CDPView.sol",
  "abi": [
    {
      "inputs": [
        {
          "internalType": "address",
          "name": "mcdAddr",
          "type": "address"
        },
        {
          "internalType": "address",
          "name": "mcdVatAddr",
          "type": "address"
        }
      ],
      "stateMutability": "nonpayable",
      "type": "constructor"
    },
    {
      "inputs": [
        {
          "internalType": "address",
          "name": "owner",
          "type": "address"
        }
      ],
      "name": "_getProxyOwner",
      "outputs": [
        {
          "internalType": "address",
          "name": "userAddr",
          "type": "address"
        }
      ],
      "stateMutability": "view",
      "type": "function"
    },
    {
      "inputs": [
        {
          "internalType": "uint256",
          "name": "_cdpId",
          "type": "uint256"
        }
      ],
      "name": "getCdpInfo",
      "outputs": [
        {
          "components": [
            {
              "internalType": "bytes32",
              "name": "ilk",
              "type": "bytes32"
            },
            {
              "internalType": "address",
              "name": "urn",
              "type": "address"
            },
            {
              "internalType": "address",
              "name": "owner",
              "type": "address"
            },
            {
              "internalType": "address",
              "name": "userAddr",
              "type": "address"
            },
            {
              "internalType": "uint256",
              "name": "collateral",
              "type": "uint256"
            },
            {
              "internalType": "uint256",
              "name": "debt",
              "type": "uint256"
            },
            {
              "internalType": "uint256",
              "name": "adjustedDebt",
              "type": "uint256"
            }
          ],
          "internalType": "struct CDPView.Information",
          "name": "",
          "type": "tuple"
        }
      ],
      "stateMutability": "view",
      "type": "function"
    }
  ],
  "bytecode": "0x608060405234801561001057600080fd5b50604051610bd8380380610bd88339818101604052810190610032919061011d565b816000806101000a81548173ffffffffffffffffffffffffffffffffffffffff021916908373ffffffffffffffffffffffffffffffffffffffff16021790555080600160006101000a81548173ffffffffffffffffffffffffffffffffffffffff021916908373ffffffffffffffffffffffffffffffffffffffff160217905550505061015d565b600080fd5b600073ffffffffffffffffffffffffffffffffffffffff82169050919050565b60006100ea826100bf565b9050919050565b6100fa816100df565b811461010557600080fd5b50565b600081519050610117816100f1565b92915050565b60008060408385031215610134576101336100ba565b5b600061014285828601610108565b925050602061015385828601610108565b9150509250929050565b610a6c8061016c6000396000f3fe608060405234801561001057600080fd5b50600436106100365760003560e01c80634042d4ad1461003b578063b3a4e1ae1461006b575b600080fd5b6100556004803603810190610050919061061b565b61009b565b604051610062919061073f565b60405180910390f35b61008560048036038101906100809190610786565b6104e1565b60405161009291906107c2565b60405180910390f35b6100a361055e565b60008060009054906101000a900473ffffffffffffffffffffffffffffffffffffffff1673ffffffffffffffffffffffffffffffffffffffff16632c2cb9fd846040518263ffffffff1660e01b81526004016100ff91906107ec565b602060405180830381865afa15801561011c573d6000803e3d6000fd5b505050506040513d601f19601f820116820180604052508101906101409190610833565b905060008060009054906101000a900473ffffffffffffffffffffffffffffffffffffffff1673ffffffffffffffffffffffffffffffffffffffff16638161b120856040518263ffffffff1660e01b815260040161019e91906107ec565b602060405180830381865afa1580156101bb573d6000803e3d6000fd5b505050506040513d601f19601f820116820180604052508101906101df9190610875565b905060008060009054906101000a900473ffffffffffffffffffffffffffffffffffffffff1673ffffffffffffffffffffffffffffffffffffffff16632726b073866040518263ffffffff1660e01b815260040161023d91906107ec565b602060405180830381865afa15801561025a573d6000803e3d6000fd5b505050506040513d601f19601f8201168201806040525081019061027e9190610875565b905060003073ffffffffffffffffffffffffffffffffffffffff1663b3a4e1ae846040518263ffffffff1660e01b81526004016102bb91906107c2565b602060405180830381865afa9250505080156102f557506040513d601f19601f820116820180604052508101906102f29190610875565b60015b156102ff57809150505b600080600160009054906101000a900473ffffffffffffffffffffffffffffffffffffffff1673ffffffffffffffffffffffffffffffffffffffff16632424be5c87866040518363ffffffff1660e01b815260040161035f9291906108b1565b6040805180830381865afa15801561037b573d6000803e3d6000fd5b505050506040513d601f19601f8201168201806040525081019061039f91906108ef565b915091506000600160009054906101000a900473ffffffffffffffffffffffffffffffffffffffff1673ffffffffffffffffffffffffffffffffffffffff1663d9638d36886040518263ffffffff1660e01b8152600401610400919061092f565b60a060405180830381865afa15801561041d573d6000803e3d6000fd5b505050506040513d601f19601f82011682018060405250810190610441919061094a565b5050509150506000828261045591906109f4565b905060006040518060e001604052808a81526020018873ffffffffffffffffffffffffffffffffffffffff1681526020018973ffffffffffffffffffffffffffffffffffffffff1681526020018773ffffffffffffffffffffffffffffffffffffffff168152602001868152602001858152602001838152509050809950505050505050505050919050565b6000808290508073ffffffffffffffffffffffffffffffffffffffff16638da5cb5b6040518163ffffffff1660e01b8152600401602060405180830381865afa158015610532573d6000803e3d6000fd5b505050506040513d601f19601f820116820180604052508101906105569190610875565b915050919050565b6040518060e0016040528060008019168152602001600073ffffffffffffffffffffffffffffffffffffffff168152602001600073ffffffffffffffffffffffffffffffffffffffff168152602001600073ffffffffffffffffffffffffffffffffffffffff1681526020016000815260200160008152602001600081525090565b600080fd5b6000819050919050565b6105f8816105e5565b811461060357600080fd5b50565b600081359050610615816105ef565b92915050565b600060208284031215610631576106306105e0565b5b600061063f84828501610606565b91505092915050565b6000819050919050565b61065b81610648565b82525050565b600073ffffffffffffffffffffffffffffffffffffffff82169050919050565b600061068c82610661565b9050919050565b61069c81610681565b82525050565b6106ab816105e5565b82525050565b60e0820160008201516106c76000850182610652565b5060208201516106da6020850182610693565b5060408201516106ed6040850182610693565b5060608201516107006060850182610693565b50608082015161071360808501826106a2565b5060a082015161072660a08501826106a2565b5060c082015161073960c08501826106a2565b50505050565b600060e08201905061075460008301846106b1565b92915050565b61076381610681565b811461076e57600080fd5b50565b6000813590506107808161075a565b92915050565b60006020828403121561079c5761079b6105e0565b5b60006107aa84828501610771565b91505092915050565b6107bc81610681565b82525050565b60006020820190506107d760008301846107b3565b92915050565b6107e6816105e5565b82525050565b600060208201905061080160008301846107dd565b92915050565b61081081610648565b811461081b57600080fd5b50565b60008151905061082d81610807565b92915050565b600060208284031215610849576108486105e0565b5b60006108578482850161081e565b91505092915050565b60008151905061086f8161075a565b92915050565b60006020828403121561088b5761088a6105e0565b5b600061089984828501610860565b91505092915050565b6108ab81610648565b82525050565b60006040820190506108c660008301856108a2565b6108d360208301846107b3565b9392505050565b6000815190506108e9816105ef565b92915050565b60008060408385031215610906576109056105e0565b5b6000610914858286016108da565b9250506020610925858286016108da565b9150509250929050565b600060208201905061094460008301846108a2565b92915050565b600080600080600060a08688031215610966576109656105e0565b5b6000610974888289016108da565b9550506020610985888289016108da565b9450506040610996888289016108da565b93505060606109a7888289016108da565b92505060806109b8888289016108da565b9150509295509295909350565b7f4e487b7100000000000000000000000000000000000000000000000000000000600052601160045260246000fd5b60006109ff826105e5565b9150610a0a836105e5565b9250828202610a18816105e5565b91508282048414831517610a2f57610a2e6109c5565b5b509291505056fea2646970667358221220b88ffb52af922e51c9b62531ca0c1bdc6c35045bc39b6221a151c6955e7ff78864736f6c63430008130033",
  "linkReferences": {},
  "deployedLinkReferences": {}
}