{
  "_format": "hh-sol-artifact-1",
  "contractName": "CDPView",
  "sourceName": "contracts/CDPView.sol",
  "abi": [
    {
      "inputs": [
        {
          "internalType": "address",
          "name": "cdpManagerAddr",
          "type": "address"
        },
        {
          "internalType": "address",
          "name": "vatAddr",
          "type": "address"
        }
      ],
      "stateMutability": "nonpayable",
      "type": "constructor"
    },
    {
      "inputs": [
        {
          "internalType": "address",
          "name": "owner",
          "type": "address"
        }
      ],
      "name": "_getProxyOwner",
      "outputs": [
        {
          "internalType": "address",
          "name": "userAddr",
          "type": "address"
        }
      ],
      "stateMutability": "view",
      "type": "function"
    },
    {
      "inputs": [],
      "name": "cdpManager",
      "outputs": [
        {
          "internalType": "contract CDPManager",
          "name": "",
          "type": "address"
        }
      ],
      "stateMutability": "view",
      "type": "function"
    },
    {
      "inputs": [
        {
          "internalType": "uint256",
          "name": "_cdpId",
          "type": "uint256"
        }
      ],
      "name": "getCdpInfo",
      "outputs": [
        {
          "components": [
            {
              "internalType": "bytes32",
              "name": "ilk",
              "type": "bytes32"
            },
            {
              "internalType": "address",
              "name": "urn",
              "type": "address"
            },
            {
              "internalType": "address",
              "name": "owner",
              "type": "address"
            },
            {
              "internalType": "address",
              "name": "userAddr",
              "type": "address"
            },
            {
              "internalType": "uint256",
              "name": "collateral",
              "type": "uint256"
            },
            {
              "internalType": "uint256",
              "name": "debt",
              "type": "uint256"
            },
            {
              "internalType": "uint256",
              "name": "adjustedDebt",
              "type": "uint256"
            }
          ],
          "internalType": "struct CDPView.Information",
          "name": "",
          "type": "tuple"
        }
      ],
      "stateMutability": "view",
      "type": "function"
    },
    {
      "inputs": [],
      "name": "getCdpManager",
      "outputs": [
        {
          "internalType": "address",
          "name": "",
          "type": "address"
        }
      ],
      "stateMutability": "view",
      "type": "function"
    },
    {
      "inputs": [],
      "name": "getVat",
      "outputs": [
        {
          "internalType": "address",
          "name": "",
          "type": "address"
        }
      ],
      "stateMutability": "view",
      "type": "function"
    },
    {
      "inputs": [],
      "name": "vat",
      "outputs": [
        {
          "internalType": "contract Vat",
          "name": "",
          "type": "address"
        }
      ],
      "stateMutability": "view",
      "type": "function"
    }
  ],
  "bytecode": "0x60806040523480156200001157600080fd5b506040516200183e3803806200183e833981810160405281019062000037919062000231565b6200006b7f15cde22ecc8fa1b45a8e0c7011280febb65d3d44fd06fbe6b3108561471a361160001b620001c460201b60201c565b6200009f7fc4c20eecac9e7b1bf08568b605cb2c6962d44f2b89dc33e1521c241323041d0b60001b620001c460201b60201c565b620000d37f89d72917d0a1b0d0427a4201a998ce8b13b21079372ea44b124bee996dbd29dd60001b620001c460201b60201c565b816000806101000a81548173ffffffffffffffffffffffffffffffffffffffff021916908373ffffffffffffffffffffffffffffffffffffffff160217905550620001477f59d66fceb3ff7729de4e9d054e55b578e705e244ddaf7b71eea90c15b4de206360001b620001c460201b60201c565b6200017b7fd93a45bb3c03e4c7997c7472ea73612801761884ac3d07fb0afd417e1c8b4d7c60001b620001c460201b60201c565b80600160006101000a81548173ffffffffffffffffffffffffffffffffffffffff021916908373ffffffffffffffffffffffffffffffffffffffff160217905550505062000278565b50565b600080fd5b600073ffffffffffffffffffffffffffffffffffffffff82169050919050565b6000620001f982620001cc565b9050919050565b6200020b81620001ec565b81146200021757600080fd5b50565b6000815190506200022b8162000200565b92915050565b600080604083850312156200024b576200024a620001c7565b5b60006200025b858286016200021a565b92505060206200026e858286016200021a565b9150509250929050565b6115b680620002886000396000f3fe608060405234801561001057600080fd5b50600436106100625760003560e01c806336569e77146100675780634042d4ad14610085578063a3d06eb4146100b5578063b3a4e1ae146100d3578063bb038e1514610103578063fe285fd514610121575b600080fd5b61006f61013f565b60405161007c919061105f565b60405180910390f35b61009f600480360381019061009a91906110b5565b610165565b6040516100ac91906111b9565b60405180910390f35b6100bd61099d565b6040516100ca91906111e3565b60405180910390f35b6100ed60048036038101906100e8919061122a565b610a4b565b6040516100fa91906111e3565b60405180910390f35b61010b610ba5565b6040516101189190611278565b60405180910390f35b610129610bc9565b60405161013691906111e3565b60405180910390f35b600160009054906101000a900473ffffffffffffffffffffffffffffffffffffffff1681565b61016d610f5e565b6101997f2c5a0f91afa67e15fe6c21038bc7182380fa537e5f2853f7c1b9b473e09a1efc60001b610c75565b6101c57fbe21c148b92d53396b858aed4b2b35421eefc209030010054f884615249a0bac60001b610c75565b6101f17fdabb8ecaa735bf2dea4d3f7479b3e825c0f191afc319ec01a19dcad2fb564cf560001b610c75565b60008060009054906101000a900473ffffffffffffffffffffffffffffffffffffffff1673ffffffffffffffffffffffffffffffffffffffff16632c2cb9fd846040518263ffffffff1660e01b815260040161024d91906112a2565b602060405180830381865afa15801561026a573d6000803e3d6000fd5b505050506040513d601f19601f8201168201806040525081019061028e91906112e9565b90506102bc7f9d25ae241993b56680953c0ab7e76569ede50662cdbb25d36f37e2541a77858f60001b610c75565b6102e87f71afe7974b119f31442cf4408fb023c9f82b06b0350fc1a85491433ce224483d60001b610c75565b60008060009054906101000a900473ffffffffffffffffffffffffffffffffffffffff1673ffffffffffffffffffffffffffffffffffffffff16638161b120856040518263ffffffff1660e01b815260040161034491906112a2565b602060405180830381865afa158015610361573d6000803e3d6000fd5b505050506040513d601f19601f82011682018060405250810190610385919061132b565b90506103b37f97fdb1440c5fa21046aaabd0f9d62d361c28862895bd85cb5eb28ff5f359f9c660001b610c75565b6103df7f101e3b3fbd8c04a946bb52bfa5924a4b480047816ff578de8bd08675b2c1cf5060001b610c75565b60008060009054906101000a900473ffffffffffffffffffffffffffffffffffffffff1673ffffffffffffffffffffffffffffffffffffffff16632726b073866040518263ffffffff1660e01b815260040161043b91906112a2565b602060405180830381865afa158015610458573d6000803e3d6000fd5b505050506040513d601f19601f8201168201806040525081019061047c919061132b565b90506104aa7f4bf13a8056934c16bd2268d73f482a17fa3f567199a2641a5ef9c323b0d8485460001b610c75565b6104d67f82eb739d0f0ba1eed3e1d104c52518492d1ec69f694715c1437dcc8284b8bc2a60001b610c75565b60006105047fe9d467e963efec8186777a677191e9959110746073638b34323dc3e3cca6f43060001b610c75565b6105307fa5fa586d28cccac7a9d2d4dc988629672ffad0aa414a3d55f2cd094afe79498160001b610c75565b3073ffffffffffffffffffffffffffffffffffffffff1663b3a4e1ae846040518263ffffffff1660e01b815260040161056991906111e3565b602060405180830381865afa9250505080156105a357506040513d601f19601f820116820180604052508101906105a0919061132b565b60015b15610605576105d47f34d035b570a5c800c2c03246c6ca805ca6bdff026c692d8de10205ee67dc9f6a60001b610c75565b6106007f5460e4ef6c8ebdfe82d7335f5abc2d0e2666ac9a68ae043a465fc290c4ec399760001b610c75565b809150505b6106317f78b55aa7cf73e47bf279b0f533447b3d8ed5435e822eeb99654cdee3842af72760001b610c75565b61065d7fa3386e4c3d91c1063bff922ffb284d92d423be9d30d95efa57e25a2abd65afa060001b610c75565b600080600160009054906101000a900473ffffffffffffffffffffffffffffffffffffffff1673ffffffffffffffffffffffffffffffffffffffff16632424be5c87866040518363ffffffff1660e01b81526004016106bd929190611367565b6040805180830381865afa1580156106d9573d6000803e3d6000fd5b505050506040513d601f19601f820116820180604052508101906106fd91906113a5565b9150915061072d7f9e93b8fb319c813c0b42cfd6217e31a3ffa74573c9f9f5148ac4a02b4169d38160001b610c75565b6107597fdacaa000db0af68c3dfad803137bcde8a219ec782974a68aee1a124c7253e0df60001b610c75565b6000600160009054906101000a900473ffffffffffffffffffffffffffffffffffffffff1673ffffffffffffffffffffffffffffffffffffffff1663d9638d36886040518263ffffffff1660e01b81526004016107b691906113e5565b60a060405180830381865afa1580156107d3573d6000803e3d6000fd5b505050506040513d601f19601f820116820180604052508101906107f79190611400565b5050509150506108297f90503e56ced8b3933b70234b51a92be708d4368c0c7f2c0d1c9cb2652c650cf260001b610c75565b6108557fe352e2a8c0011841dac7a3ecc3ec8bbc894071e25c3b99b042640e811776b2e560001b610c75565b60006108618284610c78565b905061088f7fd3f8da464872f2ea5dfa095e304f452980bd9552fc697133544dfabfb6263c2a60001b610c75565b6108bb7ff0fd28ed72ccc66e86fe3b02b78c2fc5791e18ecaa7234cb86a7b4a4d6c5f69560001b610c75565b60006040518060e001604052808a81526020018873ffffffffffffffffffffffffffffffffffffffff1681526020018973ffffffffffffffffffffffffffffffffffffffff1681526020018773ffffffffffffffffffffffffffffffffffffffff1681526020018681526020018581526020018381525090506109607f5379f059d6085cb0c7a06a5e8c284ba3dd63209af0597f3f55ea253ac94cc62560001b610c75565b61098c7fd0326909ecc804a5b5ecb3228997900be79dc5f7e8b784913e4c34bc34dde4cb60001b610c75565b809950505050505050505050919050565b60006109cb7f3868f8fb906c8f8fdd1d541f039d59954561fcbdbe196eefd0e87b6190418a7460001b610c75565b6109f77f678cdcbc51dae2740244c46624c8a4bbfec4b8246e66da607e666aed7354e90b60001b610c75565b610a237f7e4958d039377aeb2e6a0c159302d6c66e3aa3e8a5e299f16ac8b4424974c99b60001b610c75565b600160009054906101000a900473ffffffffffffffffffffffffffffffffffffffff16905090565b6000610a797f07f6b1cca4f3ed775ad7d33f5871e04dd13f777958c2c655566144ed13a90eb160001b610c75565b610aa57f8a459b8cedaefb4d4f69f7ec1f21c585fa284a4d7b0c197434f696910f5c6cc860001b610c75565b610ad17f8a0bef14b018d5945955eabab9f7cb5ded9e2433b42ad277b09c1b0f4f24c14660001b610c75565b6000829050610b027f6a44a02ebfea98298f9467613b5b31203cbf12f878a798a36be4996ed91f7ef660001b610c75565b610b2e7f22fc5131c73519d97aa3d93b159ca0fcc561ffaa4686a8ca92440cd557a20ea960001b610c75565b8073ffffffffffffffffffffffffffffffffffffffff16638da5cb5b6040518163ffffffff1660e01b8152600401602060405180830381865afa158015610b79573d6000803e3d6000fd5b505050506040513d601f19601f82011682018060405250810190610b9d919061132b565b915050919050565b60008054906101000a900473ffffffffffffffffffffffffffffffffffffffff1681565b6000610bf77fe8f3ecf58caed5b52d58a65a9acb3217b92971b6e9cf79044fa987c18522282d60001b610c75565b610c237fc5468abdcfa0b56fc32c297cb56dd74741575c7c5e7292b02b924a8bcaec7a7a60001b610c75565b610c4f7fb61f8f96d4bf4dde089e90f64822028da00b271967f08491155f44c9a50e9ccd60001b610c75565b60008054906101000a900473ffffffffffffffffffffffffffffffffffffffff16905090565b50565b6000610ca67f9c21446de71bef251945828fb8f6b03088606da91cc341a62760e0a44450ebc360001b610d48565b610cd27fb6f158153ca0bcb16cce111431ecca1d2586c7936ebfce2be9a2d5d9c748e51860001b610d48565b610cfe7f5439d0425e8294df0cd05b1dba9929029a87c68564e10cab589d71c05e3d9e5460001b610d48565b6b033b2e3c9fd0803ce8000000610d36610d188585610d4b565b60026b033b2e3c9fd0803ce8000000610d3191906114d9565b610e5f565b610d4091906114d9565b905092915050565b50565b6000610d797f8f39fa3e286119215aff4e37fa38a44418c9a2831dc902899c71ac344ebc7da360001b610d48565b610da57fab2895910f4db8c6f5289c65e4a860f900b10fb93205f13fb1f4128d7d84325d60001b610d48565b610dd17ff294a99ec6404d9e13710cc75a2cc51247195552381edea9eb43fec9ece4ca9960001b610d48565b610dfd7fa27d882b731b803915c7342236549943c94759980aecdb7c5cc8527e42b0216f60001b610d48565b6000821480610e24575082828385610e15919061150a565b925082610e2291906114d9565b145b610e2d57600080fd5b610e597fa510b230fc36335e612947bf953b8b909c3b0f9c7c7093badffa66e782dac08a60001b610d48565b92915050565b6000610e8d7f11a47a2f41ce417dd4f15a8b6a652054c2096d293475c140aaf36b0346421df860001b610d48565b610eb97f43ce94416d0c0871cf8475345254903c40faac46ea49d01c5e4ab33cbe657f0960001b610d48565b610ee57fdd9f18c51a4202a518588b80d447bc8092abadd0deb3c7f011caa0cbb86abaec60001b610d48565b610f117fd815e6f37f13ecc7a0c7eb248d6e373f1b0cb6181726df5ebae7501ca2d5ed8560001b610d48565b828284610f1e919061154c565b9150811015610f2c57600080fd5b610f587fb570a28edb75b72cf53877c4daf76b2e4144962fb6aeff6b673efa945b65062c60001b610d48565b92915050565b6040518060e0016040528060008019168152602001600073ffffffffffffffffffffffffffffffffffffffff168152602001600073ffffffffffffffffffffffffffffffffffffffff168152602001600073ffffffffffffffffffffffffffffffffffffffff1681526020016000815260200160008152602001600081525090565b600073ffffffffffffffffffffffffffffffffffffffff82169050919050565b6000819050919050565b600061102561102061101b84610fe0565b611000565b610fe0565b9050919050565b60006110378261100a565b9050919050565b60006110498261102c565b9050919050565b6110598161103e565b82525050565b60006020820190506110746000830184611050565b92915050565b600080fd5b6000819050919050565b6110928161107f565b811461109d57600080fd5b50565b6000813590506110af81611089565b92915050565b6000602082840312156110cb576110ca61107a565b5b60006110d9848285016110a0565b91505092915050565b6000819050919050565b6110f5816110e2565b82525050565b600061110682610fe0565b9050919050565b611116816110fb565b82525050565b6111258161107f565b82525050565b60e08201600082015161114160008501826110ec565b506020820151611154602085018261110d565b506040820151611167604085018261110d565b50606082015161117a606085018261110d565b50608082015161118d608085018261111c565b5060a08201516111a060a085018261111c565b5060c08201516111b360c085018261111c565b50505050565b600060e0820190506111ce600083018461112b565b92915050565b6111dd816110fb565b82525050565b60006020820190506111f860008301846111d4565b92915050565b611207816110fb565b811461121257600080fd5b50565b600081359050611224816111fe565b92915050565b6000602082840312156112405761123f61107a565b5b600061124e84828501611215565b91505092915050565b60006112628261102c565b9050919050565b61127281611257565b82525050565b600060208201905061128d6000830184611269565b92915050565b61129c8161107f565b82525050565b60006020820190506112b76000830184611293565b92915050565b6112c6816110e2565b81146112d157600080fd5b50565b6000815190506112e3816112bd565b92915050565b6000602082840312156112ff576112fe61107a565b5b600061130d848285016112d4565b91505092915050565b600081519050611325816111fe565b92915050565b6000602082840312156113415761134061107a565b5b600061134f84828501611316565b91505092915050565b611361816110e2565b82525050565b600060408201905061137c6000830185611358565b61138960208301846111d4565b9392505050565b60008151905061139f81611089565b92915050565b600080604083850312156113bc576113bb61107a565b5b60006113ca85828601611390565b92505060206113db85828601611390565b9150509250929050565b60006020820190506113fa6000830184611358565b92915050565b600080600080600060a0868803121561141c5761141b61107a565b5b600061142a88828901611390565b955050602061143b88828901611390565b945050604061144c88828901611390565b935050606061145d88828901611390565b925050608061146e88828901611390565b9150509295509295909350565b7f4e487b7100000000000000000000000000000000000000000000000000000000600052601260045260246000fd5b7f4e487b7100000000000000000000000000000000000000000000000000000000600052601160045260246000fd5b60006114e48261107f565b91506114ef8361107f565b9250826114ff576114fe61147b565b5b828204905092915050565b60006115158261107f565b91506115208361107f565b925082820261152e8161107f565b91508282048414831517611545576115446114aa565b5b5092915050565b60006115578261107f565b91506115628361107f565b925082820190508082111561157a576115796114aa565b5b9291505056fea26469706673582212201686014f5a01b0eb328ac7c006e4b0a2eaf6c7b0b36d05a944b3e74b54c1a92964736f6c63430008130033",
  "linkReferences": {},
  "deployedLinkReferences": {}
}